:020000040C00EE
:1000000000D0FE1F010200089902000899020008B2
:1000100099020008990200089902000800000000F7
:10002000000000000000000000000000990200082D
:1000300099020008000000009902000899020008D7
:100040009902000899020008990200089902000824
:100050009902000899020008990200089902000814
:1000600099020008000000000000000000000000ED
:100070009902000800000000990200089902000897
:1000800099020008990200089902000899020008E4
:1000900099020008990200089902000899020008D4
:1000A00099020008990200089902000899020008C4
:1000B00099020008990200089902000899020008B4
:1000C00099020008990200089902000899020008A4
:1000D0009902000899020008990200089902000894
:1000E0009902000899020008990200089902000884
:1000F0009902000899020008990200089902000874
:10010000990200081D8A0008990200089902000857
:100110009902000899020008990200089902000853
:1001200099020008898900089902000899020008CC
:100130009902000899020008990200089902000833
:100140009902000899020008990200089902000823
:100150009902000899020008990200089902000813
:10016000000000000000000000000000000000008F
:1001700099020008990200089902000899020008F3
:1001800099020008990200089902000899020008E3
:1001900099020008F17A000899020008017B000822
:1001A000715F0008815F0008990200089902000849
:1001B00099020008990200089902000899020008B3
:1001C00099020008990200089902000899020008A3
:1001D0009902000899020008990200080000000036
:1001E000990200089902000899020008814C000851
:1001F0009902000899020008990200080000000016
:10020000DFF874D01D4880471D4C1E4DAC4209DA02
:1002100021686268A368043BA2BFC858D050FAE7BF
:100220000C34F3E7184B194CA34208DA19685A68E2
:100230000020043AA4BF8850FBE70833F4E71448D1
:1002400080471448804700001C41010C00D0FE1F6D
:10025000B00600001C41010C00D0FE1F0000000091
:10026000B0D6FE1F4430000000000020000E000049
:10027000000E00200000000000D0FE1F6D350008B9
:1002800048020008600200086002000878020008C6
:100290005D240108591B0108FEE7000080B485B009
:1002A00000AFF8600B467A60FB72FB7A9B08DBB20A
:1002B0001846FB7A9B08DBB21A46FB68043253F8F7
:1002C0002220FB7A03F00303DB001946F8238B405E
:1002D000DB4302EA0301FB68021D43F82210FB68BE
:1002E0005A6FFB7A5B00194603238B40DB431A40AD
:1002F000FB685A67FB683A4A934203D0FB68394A65
:1003000093420AD1FB681A6EFB7A012101FA03F3CA
:10031000DB431A40FB681A6642E07B681B78DBB25D
:100320005BB2002B3CDA7B685A68FB7A9A40FB6828
:100330005A60FB7ADB08DBB21846FB7ADB08DBB2DB
:100340001A46FB68103253F82220FB7A03F00703A9
:100350009B00194607238B40DB4302EA0301FB683D
:1003600000F1100243F82210FB7ADB08DBB21846DA
:10037000FB7ADB08DBB21A46FB68103253F8222006
:100380007B681B7A1946FB7A03F007039B0001FA8E
:1003900003F342EA0301FB6800F1100243F8221064
:1003A000FB7A9B08DBB21846FB7A9B08DBB21A4645
:1003B000FB68043253F822207B681B781946FB7ACD
:1003C00003F00303DB0001FA03F342EA0301FB68D5
:1003D000021D43F822101437BD465DF8047B7047B8
:1003E000008E0248008F024880B400AF034B1B68A8
:1003F0001846BD465DF8047B704700BFC0FF032070
:1004000080B400AF034BD3F8C4301846BD465DF846
:10041000047B70470040005080B584B000AF786026
:1004200003F0B4F80B4B1B680B4AA2FB03239A0C96
:100430007B6802FB03F37B600023FB6003E000BFEB
:10044000FB680133FB60FA687B689A42F7D3103788
:10045000BD4680BDC0FF032083DE1B4380B400AFD8
:10046000034B5B681846BD465DF8047B704700BFD0
:100470007440005080B483B000AF7860034A7B685A
:10048000D3600C37BD465DF8047B70477440005064
:10049000B0B584B002AF7860002000F0B7F800F08B
:1004A000ADFA7B68DB79002B0AD000F0E5FA00BFDB
:1004B00000F0D0FA034683F00103DBB2002BF7D142
:1004C0007B685B7A184600F01BF900BFFFF798FFC6
:1004D0000346002BFAD17B681B7A184600F050FACD
:1004E0007B681B7C184600F029F97B685B7C18460A
:1004F00000F04CF97B689B7C184600F033F97B6870
:10050000DB7C184600F056F97B689B79002B0AD0FB
:1005100000F0EAFA00BF00F00FFB034683F001038E
:10052000DBB2002BF7D17B68DB78002B02D100F027
:1005300027FB14E000F014FB7B6899887B68DA786D
:100540007B685B781D467B681B781C467B689B78C4
:100550000093084611462A46234600F021FB7B689B
:10056000DB68B3F5803F03D14FF4803000F04EF8E4
:1005700003F00CF80837BD46B0BD00BF80B485B0AD
:1005800000AF78607B681B0FFB607B6823F07043D3
:10059000BB60FA6813465B0013449B001A46044B89
:1005A0001344BA681A601437BD465DF8047B70477F
:1005B0001044005080B485B000AF78607B681B0F9A
:1005C000FB607B6823F07043BB60FA6813465B00F6
:1005D00013449B001A46044B1344BA681A6014373C
:1005E000BD465DF8047B70471444005080B500AFF1
:1005F000FFF7FAFE0246044B5B6903F0010322FA9F
:1006000003F3184680BD00BF0046005080B483B09D
:1006100000AF78600649064BDB6823F480327B68C4
:100620001343CB600C37BD465DF8047B704700BFB9
:100630000046005080B483B000AF78600649064B96
:100640009B6923F480327B6813438B610C37BD4672
:100650005DF8047B704700BF0046005080B483B053
:1006600000AF78600649064B5B6A23F440327B6832
:1006700013434B620C37BD465DF8047B704700BFE7
:100680000046005080B483B000AF0346FB80FB8877
:10069000002B08D10A4A0A4BDB6823F4807323F04D
:1006A0000103D36007E0064A054BDB6843F480731F
:1006B00043F00103D3600C37BD465DF8047B7047FF
:1006C0001047005080B483B000AF0346FB7100BFF9
:1006D000094BD3F8C43003F00803002BF8D10749C5
:1006E000064BDB6823F04002FB791343CB600C37E9
:1006F000BD465DF8047B7047004000500043005049
:1007000080B483B000AF0346FB7100BF094BD3F840
:10071000C43003F00803002BF8D10749064BDB680F
:1007200023F08002FB791343CB600C37BD465DF8A4
:10073000047B7047004000500043005080B483B0F9
:1007400000AF78600649064BDB6823F0FF027B6848
:10075000013B1343CB600C37BD465DF8047B70470B
:100760000046005080B483B000AF78600649064B65
:100770001B6A23F001027B68013B13430B620C37B9
:10078000BD465DF8047B70470046005080B483B0DE
:1007900000AF78600649064B1B6923F001027B68B5
:1007A000013B13430B610C37BD465DF8047B70477A
:1007B0000046005080B483B000AF78600649064B15
:1007C0005B6923F001027B68013B13434B610C37EB
:1007D000BD465DF8047B70470046005080B483B08E
:1007E00000AF78600649064B9B6923F007027B68DF
:1007F000013B13438B610C37BD465DF8047B7047AA
:100800000046005080B483B000AF78600649064BC4
:10081000DB6923F03F027B68013B1343CB610C375C
:10082000BD465DF8047B70470046005080B483B03D
:1008300000AF78600649064B5B6A23F0FF027B68D5
:10084000013B13434B620C37BD465DF8047B704798
:100850000046005080B483B000AF78600649064B74
:100860009B6B23F003027B68013B13438B630C37C4
:10087000BD465DF8047B70470046005080B483B0ED
:1008800000AF0346FB71044AFB7953600C37BD4649
:100890005DF8047B704700BF0046005080B485B00F
:1008A00000AF78607B681B0FFB607B6823F07043B0
:1008B000BB60FA6813465B0013449B001A46044B66
:1008C0001344BA681A601437BD465DF8047B70475C
:1008D0004446005080B485B000AF78607B681B0F41
:1008E000FB607B6823F07043BB60FA6813465B00D3
:1008F00013449B001A46044B1344BA681A60143719
:10090000BD465DF8047B70474846005080B483B014
:1009100000AF78603960194A184B5B6943F00103F6
:100920005361164A154B5B6943F010035361134939
:100930003B68013B1A027B68013B1B0613434B617A
:100940000E4A0E4B5B6943F0400353610B4A0B4B5D
:100950005B6923F010035361084A084B5B6943F459
:100960008023536100BF054B1B6903F00403002B78
:10097000F9D00C37BD465DF8047B70471047005036
:1009800080B582B000AF0346FB710F4A0E4B5B6827
:1009900043F480135360FB79012B0ED10A4A0A4BB2
:1009A0005B6823F4801353606420FFF735FD064A2B
:1009B000054B5B6843F4002353606420FFF72CFD74
:1009C0000837BD4680BD00BF1047005080B400AF5F
:1009D000034B4FF440325A60BD465DF8047B7047CC
:1009E0000042005080B400AF034B4FF440329A6095
:1009F000BD465DF8047B70470042005080B400AFF4
:100A0000124B1B6803F00103002B09D10F4B01228D
:100A10005A6000BF0D4B1B6803F00103002BF9D097
:100A20000B4B1B6803F40073002B0AD0084B4FF4E8
:100A300000729A6000BF064B1B6803F40073002B22
:100A4000F9D1BD465DF8047B704700BF00420050FD
:100A50000044005080B400AF064B1B6803F008034D
:100A6000002B0CBF01230023DBB21846BD465DF806
:100A7000047B70470043005080B500AF4FF4000086
:100A8000FFF7F8FC174A174BDB6923F03003D361FB
:100A900000BFFFF7E3FC034603F40003002BF8D08C
:100AA0004FF40030FFF7E6FC0E4B08225A6000BFFF
:100AB000FFF7D4FC034603F40033002BF8D04FF4C7
:100AC0000020FFF7D7FC074A064BDB6843F008031A
:100AD000D36000BFFFF7C2FC034603F40023002BE2
:100AE000F8D080BD00430050B0B500AF0F4A0F4BA7
:100AF0005B6823F4803353600D4D0D4B5B6823F42A
:100B0000702424F0300407F0D7F80246094BA3FB09
:100B100002231B0D013B1B0423436B60034A034B61
:100B20005B6823F400335360B0BD00BF1047005032
:100B3000004700506BCA5F6B80B400AF074B1B6867
:100B400003F46073B3F5607F0CBF01230023DBB2B5
:100B50001846BD465DF8047B704700BF1047005043
:100B600080B400AF054A054B5B6823F4803323F063
:100B700002035360BD465DF8047B70471047005088
:100B800080B400AF054A054B5B6843F4803343F003
:100B900002035360BD465DF8047B70471047005068
:100BA00080B586B000AFBA607B600346FB810B4620
:100BB0007B73FB891846FFF765FD7B7B012B40F0BB
:100BC0008480FB89002B09D107F076F802464B4B55
:100BD000A3FB02239B0C9B057B6102E04FF0C063EB
:100BE0007B617B697A6802FB03F2BB68B2FBF3F3BB
:100BF0007B617B69424AA2FB03231B099B0D3B617E
:100C0000404A404B5B6843F0010353603D4A3D4B13
:100C10005B6843F0100353603A493A4B9A683A4B89
:100C200013407A68013A12021A433B69013B1B04E4
:100C30001A43BB68013B1B0613438B60314A314B9F
:100C40005B6843F0400353602E4A2E4B5B6823F0F1
:100C5000100353602B4A2B4B5B6843F48023536093
:100C600000BF284B1B6803F00403002BF9D0254A72
:100C7000244B5B6823F00103536000BF214B1B68CA
:100C800003F00103002BF9D17B69204AA2FB032367
:100C90005B099B0D3B613A6A3B699A4202D2386913
:100CA00000F038F87B695B08194AA2FB03235B0953
:100CB0009B0D3B613A6A3B699A4202D2386900F067
:100CC00029F8386A00F026F815E00E490D4B9B68AC
:100CD00023F07F023B6A013B13438B60094A094BB7
:100CE0005B6843F00103536000BF064B1B6803F0D1
:100CF0000103002BF9D01837BD4680BD83DE1B43AE
:100D0000ABAAAAAA10470050FF8080F08988888883
:100D1000B7600BB680B582B000AF78600749074B6B
:100D20009B6823F4FE027B68013B1B0413438B602A
:100D30003220FFF771FB0837BD4680BD10470050D9
:100D400080B483B000AF78607B68DB6843F4807266
:100D50007B68DA600C37BD465DF8047B704700BFE6
:100D600080B582B000AF78607B68104A934203D1AF
:100D70000420FFF71FFC16E07B680D4A934203D165
:100D80000820FFF717FC0EE07B680A4A934203D164
:100D90001020FFF70FFC06E07B68074A934202D160
:100DA0000648FFF707FC0837BD4680BD00C000407D
:100DB00000000140004001400040004801000010D8
:100DC00080B582B000AF78607B68104A934203D14F
:100DD0000420FFF77FFD16E07B680D4A934203D1A4
:100DE0000820FFF777FD0EE07B680A4A934203D1A3
:100DF0001020FFF76FFD06E07B68074A934202D19F
:100E00000648FFF767FD0837BD4680BD00C00040BB
:100E10000000014000400140004000480100001077
:100E200080B582B000AF78601020FFF727FD7868AA
:100E3000FFF7C6FF7868FFF793FF0837BD4680BD10
:100E400080B584B000AF78600B46FB707868FFF720
:100E5000E7FF7868FFF774FF7B681B68FB60FB683F
:100E600023F44043FB60FB789B03FA681343FB6069
:100E70007B68FA681A601037BD4680BD80B483B0C5
:100E800000AF786039603B681A687B685A613B68DC
:100E90005B79C3F34013DBB21A057B685A603B6889
:100EA0001B79C3F30303DBB21A467B685A623B68C3
:100EB0005B79C3F30303DBB21A467B681A623B68B3
:100EC0005B79C3F30013DBB21A467B689A613B6817
:100ED0001B79C3F30313DBB21A467B68DA620C3763
:100EE000BD465DF8047B704780B485B000AF786084
:100EF0000B46FB707B689B6AFB60FB6823F47063A6
:100F0000FB60FB781B02FA681343FB607B68FA689E
:100F10009A62FA787B685A621437BD465DF8047BA2
:100F2000704700BF80B487B000AF78600B46FB709D
:100F30001346BB707B68D3F8A830FB60FB78092BA5
:100F40002CD801A252F823F0710F0008710F00088D
:100F50007B0F00087B0F00089D0F00089D0F000805
:100F60009D0F00089D0F0008850F0008910F0008D5
:100F700003233B6100237B6116E00C233B610223CA
:100F80007B6111E04FF440733B6108237B610BE010
:100F90004FF440633B610A237B6105E04FF440530B
:100FA0003B610C237B6100BF3B69DB43FA68134064
:100FB000FB60BA787B6902FA03F3FA681343FB60BB
:100FC0007B68FA68C3F8A8201C37BD465DF8047B2F
:100FD000704700BF80B483B000AF78600B46FB70F1
:100FE0001346BB70FB789B08DBB21846FB789B0866
:100FF000DBB21A467B68043253F82220FB7803F0F8
:101000000303DB001946F8238B40DB4302EA0301AC
:101010007B68021D43F82210FB789B08DBB2184660
:10102000FB789B08DBB21A467B68043253F8222017
:10103000BB78F97801F00301C9008B4042EA030153
:101040007B68021D43F822100C37BD465DF8047B17
:10105000704700BF80B483B000AF78600B46FB7070
:101060001346BB707B685A6FFB785B0019460323FD
:101070008B40DB431A407B685A677B685A6FBB78AA
:10108000F97849008B401A437B685A670C37BD4694
:101090005DF8047B704700BF80B483B000AF786018
:1010A0007B689B6BDBB223F07F03DBB218460C3707
:1010B000BD465DF8047B704780B483B000AF7860B4
:1010C00039607B68DA6C3B681A437B68DA640C37FA
:1010D000BD465DF8047B704780B582B000AF786094
:1010E0003960786802F086F87B680E4A5A633B687C
:1010F0009B887868194600F017F83B681B68786889
:10110000194600F031F87B684FF4A0629A637B685F
:101110004FF0FF32DA647B6800221A640837BD465C
:1011200080BD00BF03033F0780B483B000AF786089
:101130000B467B807B8803F4F843B3F5F04F09D16D
:101140007B88DAB27B885B0003F47E431A437B68BA
:10115000DA6303E07B881A027B68DA630C37BD46EA
:101160005DF8047B704700BF80B584B000AF786045
:1011700039600123FB733B68174A934210D87B68A0
:10118000DB6B23F400327B68DA63786839680A2203
:1011900002F07CF80346002B19D10023FB7316E004
:1011A0003B680E4A934210D87B68DB6B43F40032F5
:1011B0007B68DA6378683968192202F067F80346B9
:1011C000002B04D10023FB7301E00123FB73FB7BA5
:1011D00018461037BD4680BDA0860100801A060063
:1011E00080B584B000AF78600B467B8013467B707F
:1011F0007B8843F480639BB2FB607B78012B03D137
:10120000FB6843F00103FB607B68D3F8083103F00F
:10121000E063002B10D100BF7868FFF73DFF034665
:10122000802BF9D078684FF40051FFF745FF7B68B9
:10123000FA68C3F8802003E07B68FA68C3F880216D
:101240001037BD4680BD00BF80B584B000AF786068
:101250000B467B8013467B707B8843F4A0639BB274
:10126000FB607B78012B03D1FB6843F00103FB603B
:101270007B68D3F8083103F0E063002B10D100BF86
:101280007868FFF709FF0346802BF9D078684FF4A0
:101290000051FFF711FF7B68FA68C3F8802003E074
:1012A0007B68FA68C3F880211037BD4680BD00BF57
:1012B00080B582B000AF78607B68D3F8083103F066
:1012C000E063002B11D100BF7868FFF7E5FE03460D
:1012D000802BF9D078684FF40051FFF7EDFE7B6862
:1012E0004FF4C062C3F8802004E07B684FF4C06212
:1012F000C3F880210837BD4680BD00BF80B582B0ED
:1013000000AF78600B46FB707B68D3F8083103F0C0
:10131000E063002B10D100BF7868FFF7BDFE0346E5
:10132000802BF9D078684FF40051FFF7C5FEFA78AA
:101330007B68C3F8802003E0FA787B68C3F88021DB
:101340000837BD4680BD00BF80B582B000AF786071
:101350007B68D3F8083103F0E063002B11D100BFA4
:101360007868FFF799FE0346802BF9D078684FF430
:101370000051FFF7A1FE7B684FF40072C3F8802094
:1013800004E07B684FF40072C3F880210837BD4643
:1013900080BD00BF80B582B000AF78607B68D3F8B5
:1013A000083103F0E063002B11D100BF7868FFF72C
:1013B00073FE0346802BF9D078684FF40051FFF795
:1013C0007BFE7B684FF44072C3F8802004E07B68AA
:1013D0004FF44072C3F880210837BD4680BD00BF7E
:1013E00080B485B000AF78607B68D3F80C3103F02F
:1013F000E063002B03D17B685B6DFB7303E07B68CC
:10140000D3F81C31FB73FB7B18461437BD465DF8DF
:10141000047B704780B483B000AF786039607B682C
:101420001A6C3B6803F4FE331A437B681A647B68CA
:10143000DA6B3968044B0B401A437B68DA630C376C
:10144000BD465DF8047B70470000FC4180B483B06A
:1014500000AF786039607B681A6C3B6803F4FE3338
:10146000DB431A407B681A647B68DA6B3968054B8A
:101470000B40DB431A407B68DA630C37BD465DF8EE
:10148000047B70470000FC4180B483B000AF7860FB
:101490007B689B6BDBB223F07F03DBB218460C3713
:1014A000BD465DF8047B704780B483B000AF7860C0
:1014B00039607B683A68DA640C37BD465DF8047BB6
:1014C000704700BF80B584B000AF786039601023EA
:1014D000FB60786801F08EFE3B68DB79002B02D060
:1014E0003B68DB79FB603B681B6878681946FA68E3
:1014F00001F0CCFE3B689B79013B5A00FB685B081E
:1015000001331B02134343F4403343F001037A6871
:10151000D3633B681B79013B1B0643F481727B68F4
:101520005A633B685B79002B09D07B685A6B3B6838
:101530005B79013B1B041A437B685A6308E07B68B4
:101540005A6B3B681B79013B1B041A437B685A6347
:101550007B684FF4A0629A637B684FF0FF32DA64D5
:101560003B681B891A467B681A641037BD4680BDEC
:1015700080B582B000AF78600B467B807B68D3F883
:10158000083103F0E063002B10D100BF7868FFF74B
:101590007BFF0346802BF9D078684FF40051FFF7AA
:1015A00083FF7A887B68C3F8802003E07A887B68B1
:1015B000C3F880210837BD4680BD00BF80B485B028
:1015C00000AF78607B68D3F80C3103F0E063002B48
:1015D00003D17B685B6DFB8103E07B68D3F81C3132
:1015E000FB81FB8918461437BD465DF8047B7047C4
:1015F00080B485B000AF78600023BB730023FB7319
:101600001EE0FB7B144A342101FB03F313445B68A7
:10161000DB0803F00103DBB2002B0CD1FB7B0E4A8D
:10162000342101FB03F313445B681B0903F001033E
:10163000DBB2002B01D00123BB73FB7B0133FB73B7
:101640007B681B7BFA7B9A42DBD3BB7B1846143743
:10165000BD465DF8047B70476800FF1F80B48BB007
:1016600000AF786039607B68342202FB03F3344AB0
:1016700013443B62324BD3F8E031FB61304A7B6864
:1016800070339B0013445B681B68FB603B689B08DE
:10169000BB61BB699B007B617B7B23F07F03DBB27B
:1016A000002B48D03B6A5B6A002B44D000237B624E
:1016B0000AE03B6A5A6A7B6A9B001344FA69126823
:1016C0001A607B6A01337B627A6ABB699A42F0D303
:1016D0003A687B699A4222D0FB691B683B61002310
:1016E0007B6216E03B6A5A6ABB6999007B6A0B44CD
:1016F00013447A6AD2001146FF2202FA01F13A69D4
:101700000A40796AC900CA40D2B21A707B6A0133B2
:101710007B627A697B6A1A443B689A42E2D33B6AED
:10172000DA6A3B681A443B6ADA623B6A5A6A3B6887
:101730001A443B6A5A622C37BD465DF8047B7047F9
:101740006800FF1F80B489B000AF78607B681B78A9
:10175000C3F30303DBB2234A783352F82330FB6030
:101760007B681B78C3F30303DBB21E4A6A3352F86B
:1017700023309B69BB607B689A6A7B68DB6AD31AFB
:10178000FB61FB69002B02D100237B6123E0FB6935
:1017900003339B08BB613B891A46BB699A4204D25A
:1017A0003B89BB61BB699B00FB6100233B610CE093
:1017B0007B685B6A1A68FB681A603B6901333B61AE
:1017C0007B685B6A1A1D7B685A623A69BB699A42F8
:1017D000EED3FB697B617B6918462437BD465DF813
:1017E000047B70476800FF1F80B485B000AF0346DC
:1017F000FB710023BB60BB6843F02003BB60FB7937
:1018000003F01F03DBB203F01F039B01BA6822F44D
:10181000F8621343BB60144BD3F8A031BA681A6165
:101820000023FB6002E0FB680133FB60FB68B3F55B
:101830007A7FF8D30C4BD3F8A0311B69BB60BB682F
:101840005B0903F00103DBB2002BF3D10023FB6043
:1018500000BFFB685A1CFA60B3F57A7FF9D31437DE
:10186000BD465DF8047B70476800FF1F80B483B0FD
:1018700000AF00233B603B6843F010033B60144B18
:10188000D3F8A0313A681A6100237B6002E07B68DC
:1018900001337B607B68B3F57A7FF8D30C4BD3F8C8
:1018A000A0311B693B603B681B0903F00103DBB2FD
:1018B000002BE9D100237B6000BF7B685A1C7A6053
:1018C000B3F57A7FF9D30C37BD465DF8047B7047DA
:1018D0006800FF1F80B483B000AF0123FB800023AA
:1018E0007B7100233B7105E0FB885B00FB807B790B
:1018F00001337B717B79062B07D8114BB3F8FC21A0
:10190000FB8813409BB2002BEED10D4BB3F8FC21AA
:10191000FB8813409BB2002B0AD1094BB3F8FC2182
:10192000FB8813439AB2064BA3F8FC217B793B71E9
:101930003B7918460C37BD465DF8047B704700BF05
:101940006800FF1F80B483B000AF0346FB710A4BF1
:10195000B3F8FC21FB79012101FA03F39BB2DB43CD
:101960009BB213409AB2044BA3F8FC210C37BD463E
:101970005DF8047B704700BF6800FF1F80B487B02C
:1019800000AF786000233B617B681A6B7B689B6AC1
:10199000D31A7A689268C2F31202934209D97B681B
:1019A0009B6A7A689268C2F312021A447B689A6250
:1019B00003E07B681A6B7B689A627B681B7803F094
:1019C0000F03DBB2002B19D107F110037B617A6999
:1019D0009378012161F3C40393707A69D37843F05B
:1019E0006003D3707B681B6BDBB203F07F03D9B25B
:1019F0007A69137861F30603137033E07B689B6A9E
:101A0000002B09D13B696FF312033B617B8A0122F2
:101A100062F3CC037B8225E07B689A6A7B68DB6A91
:101A2000D31A7A685268C2F3C622D2B21344013B79
:101A30007A685268C2F3C622D2B2B3FBF2F39BB209
:101A4000C3F309039AB27B8A62F3CC037B827B687F
:101A50009A6A7B68DB6AD31AC3F312023B6962F3AA
:101A600012033B61214B1B685B7B002B0CD17B6815
:101A70001B78C3F30303DBB21D4A70339B0013448E
:101A80005B687A68526A5A617B681B78C3F3030308
:101A9000DBB2174A70339B0013445B683A691A61E2
:101AA0007B681B78C3F30303DBB2114A70339B00DE
:101AB00013445B681B68FB60FB7B43F00403FB7310
:101AC000FB7B43F08003FB737B681B78C3F303034A
:101AD000DBB2074A70339B0013445B68FA681A60F4
:101AE0001C37BD465DF8047B704700BF6400FF1FD4
:101AF0006800FF1F80B485B000AF78600023FB60F2
:101B00007B681B78C3F30303DBB25D4A6A3352F888
:101B100023301B68BB607B681A6B7B689B6AD31A97
:101B20007A689268C2F31202934204D27B681A6BFD
:101B30007B689A6208E07B689B6A7A689268C2F365
:101B400012021A447B689A627B689B6A002B09D157
:101B5000FB686FF31203FB60FB89012262F3CC0385
:101B6000FB816AE07B681B7803F00F03DBB2002B7C
:101B700010D1FB89012262F3CC03FB817B689A6A56
:101B80007B68DB6AD31AC3F31202FB6862F31203A9
:101B9000FB602BE07B689A6A7B68DB6AD31AC3F32D
:101BA0001202FB6862F31203FB607B689B6A9AB2C5
:101BB0007B68DB6A9BB2D31A9BB21A467B685B6870
:101BC000C3F3C623DBB29BB2013B9BB213447A68DA
:101BD0005268C2F3C622D2B293FBF2F39BB2C3F3B4
:101BE00009039AB2FB8962F3CC03FB81254B1B6886
:101BF0005B7B002B0BD17B681B78C3F30303DBB249
:101C00001F4A6A3352F823307A68526A5A611D4B70
:101C10001B685B7B012B10D1194BD3F8A431184AF8
:101C2000D2F8A421516B7A681278C2F30302D2B2BF
:101C30001046012282400A435A637B681B78C3F333
:101C40000303DBB20E4A6A3352F82330FA681A6192
:101C5000FB7A43F08003FB72FB7A43F00403FB72D0
:101C60007B681B78C3F30303DBB2054A6A3352F87F
:101C70002330BA681A601437BD465DF8047B70479C
:101C80006800FF1F6400FF1F80B588B000AF786058
:101C90004F4BD3F8A4315B687B613B7D43F001037C
:101CA0003B754B4BD3F8A4317A695A600023FB6132
:101CB0001AE0474AFB6970339B0013445B681B685A
:101CC000BB61FB7E43F00803FB76BB7E6FF34513DD
:101CD000BB763F4AFB6970339B0013445B68BA696B
:101CE0001A60FB690133FB61FB69062BE1D9384BB4
:101CF000D3F8A03140225A6200233B6110237B823B
:101D000040233B82324BD3F8A0313A699A620123D7
:101D1000FB6111E02E4BD3F8A011FB69013BFA697E
:101D200004329201920842F4801240339B000B442B
:101D30005A60FB690133FB61FB69062BEAD910206D
:101D4000FFF752FD0020FFF74FFDFFF78FFD002347
:101D5000FB603B7B43F001033B73BB7B43F0010320
:101D6000BB731B4BD3F8A431FA68DA610F2000F083
:101D7000F1FB0F2000F006FC154BD3F8A4311B68D3
:101D8000BB603B896FF30A133B81114BD3F8A4313D
:101D9000BA681A607B685B7B012B04D10C4BD3F8CB
:101DA000A43100225A630A4B5A6822F010025A608A
:101DB000074B5A6822F008025A60054BD3F80032EC
:101DC00004209847042000F01FFB2037BD4680BD4B
:101DD0006800FF1F80B582B000AF0F4BD3F8A03171
:101DE0005B687B603B7903F00403DBB2002B0BD014
:101DF000094A92F8FE316FF3820382F8FE31064BF6
:101E0000D3F80032012098477B68184600F060FB49
:101E10000837BD4680BD00BF6800FF1F80B582B097
:101E200000AF1B4BD3F8A8311B687B60BB886FF3F6
:101E30000A03BB80164BD3F8A8317A681A60144A9B
:101E400092F8FE3143F0010382F8FE31104A92F815
:101E5000FE3143F0040382F8FE310D4BD3F800321B
:101E6000022098470A4BD3F8A031DB683B607B78AF
:101E7000092262F385037B70054BD3F8A0313A68E1
:101E8000DA600B2000F0C0FA0837BD4680BD00BF05
:101E90006800FF1F80B58CB000AF78606A4BD3F844
:101EA000A4319B69FB61684BD3F8A431DB69BB614A
:101EB000654BD3F8A4315B697B61FA8B7B8B134054
:101EC000BB85002387F82F300023FB60AEE0BA8D7E
:101ED00097F82F3042FA03F37B857B8D03F00103E3
:101EE0003B853B8D002B00F09C8097F82F303422EF
:101EF00002FB03F3544A13447B6297F82F30524A93
:101F000070339B0013445B689A687B6913403B61A4
:101F10007B685B7B002B08D197F82F304A4A7033DF
:101F20009B0013445B681B69FB603B7C03F0080368
:101F3000DBB2002B33D07A6A13796FF34513137138
:101F40007B685B7B002B0ED107F10C03DB78C3F3BE
:101F50004113DBB21A4613465B079B1ADB0003F101
:101F600018027B6A1A617B685B7B012B06D17B6A56
:101F70001A697B6ADB6A1A447B6A1A617B6A5A684F
:101F800022F010025A60304BD3F8043200200021B6
:101F9000984797F82F300820194600F0C3FA3B7C89
:101FA00003F00103DBB2002B34D07B685B7B002B9A
:101FB00015D17B6A9A6A7B6ADB6AD31AFA68C2F324
:101FC00012029B1A3B627B6ADA6A3B6A1A447B6A9A
:101FD000DA627B6A5A6A3B6A1A447B6A5A627B6A93
:101FE0001A6B7B6A9B6A9A4211D17B6ADA6A7B6AB6
:101FF0001A617B6A5A6822F010025A60124BD3F8B9
:10200000043297F82F2010460121984702E0786AA1
:10201000FFF7B4FC3A6997F82F301046194600F0E4
:1020200081FA97F82F30013387F82F30BA8D97F85F
:102030002F3042FA03F3002B7FF449AF0D2000F05C
:10204000E3F93037BD4680BD6800FF1F80B58CB016
:1020500000AF78606A4BD3F8A4319B697B61684B11
:10206000D3F8A4311B693B610023BB60BB8ABB85ED
:10207000002387F82F30B5E0BA8D97F82F3042FA59
:1020800003F37B857B8D03F001033B853B8D002BA8
:1020900000F0A38097F82F30342202FB03F3584A54
:1020A00013447B6297F82F30554A6A3352F8233035
:1020B0009B683B62524BD3F8A4315B6B7A6A12780F
:1020C000C2F30302D2B2D340DB01DAB23B691A4356
:1020D0003B6A1340FB607B685B7B002B07D197F862
:1020E0002F30474A6A3352F823301B69BB607B6844
:1020F0005B7B012B15D13B7B23F07F03DBB2002BF5
:102100000FD0786AFFF71EFBF8617B6ADA6AFB6919
:102110001A447B6ADA627B6A5A6AFB691A447B6AF0
:102120005A623B7B03F00103DBB2002B4ED07B688D
:102130005B7B002B1DD17A8941F6F87313409BB26B
:10214000002B16D1BB68C3F31203002B11D17B6A9D
:102150009A6A7B6ADB6AD31ABB617B6ADA6ABB69FB
:102160001A447B6ADA627B6A5A6ABB691A447B6AE0
:102170005A627B6A1A6B7B6A9B6A9A4223D17B6A9A
:102180005A6822F008025A607B685B7B012B0ED1F3
:102190001B4BD3F8A4311A4AD2F8A421516B97F8FB
:1021A0002F20012000FA02F2D2430A405A63144B56
:1021B000D3F8043297F82F2062F07F02D2B2104693
:1021C0000221984702E0786AFFF794FCFA6897F8D2
:1021D0002F301046194600F08FF997F82F30013351
:1021E00087F82F30BA8D97F82F3042FA03F3002B7F
:1021F0007FF442AF0E2000F007F93037BD4680BDB6
:102200006800FF1F80B582B000AF1D4BD3F8A0312E
:102210001B6A7B60BB79C3F34303DBB2013B052B35
:102220002AD801A252F823F079220008412200089E
:102230007922000879220008792200085D2200082E
:102240003B79C3F30303DBB21A46BB88C3F30A131B
:102250009BB210461946FFF701FA0EE03B79C3F333
:102260000303DBB21A46BB88C3F30A139BB21046C2
:102270001946FFF7F3F900E000BF0837BD4680BDFF
:102280006800FF1F80B584B000AF78604F4BD3F873
:10229000A0319B69FB604D4BD3F8A0315A69FB68B4
:1022A0001340BB603B7A03F00803DBB2002B07D07E
:1022B000464BD3F8003209209847092000F0A4F8D3
:1022C0007B685B7B012B19D13B7A03F01003DBB2F7
:1022D000002B13D03B7B6FF304133B733B4BD3F8C2
:1022E000A031FA689A61FFF78DFF3B7B43F0100342
:1022F0003B73364BD3F8A031FA689A617B7A03F0CE
:102300000403DBB2002B02D00A2000F07DF87B7AB8
:1023100003F00803DBB2002B07D02C4BD3F80032BC
:1023200006209847062000F06FF8FB7A23F07F0321
:10233000DBB2002B07D0254BD3F80032082098479A
:10234000082000F061F8FB7A03F04003DBB2002BB9
:102350000ED01E4A92F8FE3143F0040382F8FE319B
:102360001A4BD3F8003200209847002000F04CF8B8
:102370007B7A03F01003DBB2002B02D07868FFF702
:1023800083FC7B7A03F02003DBB2002B01D0FFF744
:1023900045FDBB7A03F00403DBB2002B02D0786862
:1023A000FFF754FEBB7A03F00803DBB2002B02D028
:1023B0007868FFF76FFD3B7A03F00403DBB2002B74
:1023C00001D0FFF707FD1037BD4680BD6800FF1F35
:1023D00080B500AF0448FEF77DFA0348FEF7EAF83F
:1023E000FEF7F4FA80BD00BF8000002080B500AF8A
:1023F0000448FEF7C3F80348FEF750FAFEF7F2FA76
:1024000080BD00BF8000002080B485B000AF0346CF
:10241000FB710023FB60FB790D2B4CD801A252F815
:1024200023F000BF5D240008B7240008B72400088B
:10243000B724000867240008B724000871240008A6
:102440007B240008852400088F24000899240008B4
:10245000A3240008B7240008AD240008FB7B43F048
:102460004003FB7328E07B7B43F010037B7323E086
:102470007B7B43F008037B731EE0FB7B43F0800310
:10248000FB7319E0FB7B43F08003FB7314E03B7BA1
:1024900043F008033B730FE07B7B43F004037B7343
:1024A0000AE07B7B43F020037B7305E0BB7B43F0BA
:1024B0000803BB7300E000BF044BD3F8A031FA68F7
:1024C0005A611437BD465DF8047B70476800FF1FF2
:1024D00080B485B000AF78600023FB607B68FB6050
:1024E000044BD3F8A031FA685A601437BD465DF842
:1024F000047B70476800FF1F80B485B000AF786030
:102500000B46FB707B68FB60FB78054A6A3352F828
:102510002330FA689A601437BD465DF8047B704733
:102520006800FF1F80B485B000AF78600B46FB7079
:102530007B68FB60FB78064A70339B0013445B6842
:10254000FA689A601437BD465DF8047B704700BF97
:102550006800FF1F80B485B000AF78607B68FB60C7
:10256000074BD3F8A431064AD2F8A4215169FA687E
:102570000A435A611437BD465DF8047B704700BFBB
:102580006800FF1F80B485B000AF78607B68FB6097
:10259000074BD3F8A431064AD2F8A4211169FA688E
:1025A0000A431A611437BD465DF8047B704700BFCB
:1025B0006800FF1F80B483B000AF00237B603B79CD
:1025C00043F004033B713B7943F008033B713B79D3
:1025D0006FF341033B713B796FF300033B713B7930
:1025E0006FF345133B717B7943F001037B713B79BA
:1025F00043F010033B713B7943F080033B713B791F
:1026000043F040033B717B686FF35F237B607B6823
:1026100018460C37BD465DF8047B704780B58AB01C
:1026200000AF7860FFF7D4FE874A7B681360002311
:102630007B620CE0854A7B6A402142F82310844A81
:102640007B6A402142F823107B6A01337B627B6AFC
:10265000062BEFD97F4800214FF402720FF047FF9D
:102660007B685B687B4AC2F800327B689B68794A6A
:10267000C2F804327B681B683B627B681B68754A42
:10268000C2F8A0313B6A03F50063724AC2F8A43174
:1026900000237B620CE07B6A48335B013A6A1A4490
:1026A0006C497B6A6A3341F823207B6A01337B6281
:1026B0007B6A062BEFD900237B620DE07B6A5833DF
:1026C0005B013A6A1A4463497B6A70339B000B448E
:1026D0005A607B6A01337B627B6A062BEED900234A
:1026E0007B620CE07B6A01331B033A6A1A44594946
:1026F0007B6A783341F823207B6A01337B627B6AF3
:10270000062BEFD9534BD3F8A0319B68FB613B7F7D
:1027100043F001033B773B7F43F080033B777B68CB
:102720005B7B002B04D13B7F43F020033B7703E02E
:102730003B7F6FF345133B77464BD3F8A031FA69E3
:102740009A60444BD3F8A031DB68BB61FB7E43F059
:102750004003FB767B7E43F001037B763D4BD3F851
:10276000A031BA69DA603B4BD3F8A4311B687B61B6
:102770003B7D43F003033B75BB7D6FF3C713BB7514
:10278000344BD3F8A4317A691A60324BD3F8A431B0
:102790005B683B613B7C43F002033B742D4BD3F8F9
:1027A000A4313A695A601020FFF71EF8FFF75EF86F
:1027B000284BD3F8A03100229A61264BD3F8A031E0
:1027C0004FF0FF325A610023FB603B7B43F0020372
:1027D0003B733B7B43F004033B73FB7B43F04003C1
:1027E000FB737B7B43F010037B737B7B43F0200305
:1027F0007B737B7B43F004037B737B7B43F0080399
:102800007B73FB7B43F08003FB733B7B43F008034C
:102810003B737B685B7B012B03D13B7B43F0100355
:102820003B73BB7B43F00803BB73BB7B43F00403E8
:10283000BB73084BD3F8A031FA689A61002318469D
:102840002837BD4680BD00BF6400FF1FB0D6FE1F05
:10285000CCD6FE1F6800FF1F80B582B000AF0C4BC6
:10286000D3F8A4315B687B603B7943F002033B7192
:10287000074BD3F8A4317A685A60054800214FF419
:1028800002720FF034FE002318460837BD4680BDA3
:102890006800FF1F80B483B000AF0A4BD3F8A431A7
:1028A0005B687B603B796FF341033B71054BD3F869
:1028B000A4317A685A60002318460C37BD465DF88B
:1028C000047B70476800FF1F80B483B000AF0A4BE1
:1028D000D3F8A4315B687B603B7943F002033B7122
:1028E000054BD3F8A4317A685A60002318460C3798
:1028F000BD465DF8047B70476800FF1F80B584B05B
:1029000000AF78600023FB603B7B012262F3C403CD
:102910003B73124B93F8FE31C3F30003DAB23B7BF7
:1029200062F341033B737868FEF762FE034603F0EF
:102930000103DAB23B7B62F382033B73074B93F8EC
:10294000FE31C3F38003DAB23B7B62F300033B73D7
:10295000FB6818461037BD4680BD00BF6800FF1FEA
:1029600080B584B000AF03463960FB71FB7903F09A
:102970000F03342202FB03F31B4A1344BB60BB6802
:102980005B681B0903F00103DBB2002B06D1BB68B7
:102990001B7903F00403DBB2002B02D10123FB738C
:1029A0001CE0BB685A693B689A4202D2BB685B690B
:1029B0003B60BB683A681A63BB680022DA62BB6896
:1029C00000229A62BB68DA68BB685A62BB68002260
:1029D0001A61B868FEF7D2FF0023FB73FB7B184631
:1029E0001037BD4680BD00BF6800FF1F80B586B0B0
:1029F00000AF0346B9607A60FB73FB7B342202FBB5
:102A000003F3174A13447B617B691A697B689A4216
:102A100002D27B691B697B607B69DA687B699B6991
:102A20001344B86819467A680FF056FD7B691A6935
:102A30007B68D21A7B691A617B691B69002B06D0FF
:102A40007B699A697B681A447B699A6102E07B69B9
:102A500000229A617B6818461837BD4680BD00BFCA
:102A60006800FF1F80B586B000AF0346B9607A608A
:102A7000FB73FB7B03F00F03342202FB03F3224AB8
:102A800013443B613B691B7903F00403DBB2002B69
:102A900002D101237B6131E03B695B68DB0803F015
:102AA0000103DBB2012B02D100237B6126E03B69ED
:102AB0001A6A7B689A4202D23B691B6A7B603B6957
:102AC000DB691846B9687A680FF006FD3B69DA6978
:102AD0003B695A623B697A681A633B6900229A62D1
:102AE0003B690022DA623B695A6842F008025A6088
:102AF0003869FEF7FFFF3B691B6B7B617B691846FA
:102B00001837BD4680BD00BF6800FF1F80B485B088
:102B100000AF03460A46FB711346BB710D4BD3F859
:102B2000A4311B68FB60BB79002B0CD1FB7903F04F
:102B30007F03DAB2BB8962F30A13BB81054BD3F87A
:102B4000A431FA681A60002318461437BD465DF8B0
:102B5000047B70476800FF1F80B485B000AF034658
:102B60000A46FB711346BB71FB7903F00F03342255
:102B700002FB03F34A4A1344FB60BB79002B40D0AD
:102B8000FB795BB2002B1ADAFB681B78C3F30303F3
:102B9000DBB2434A6A3352F823301B68BB60BB7A0E
:102BA00043F02003BB72FB681B78C3F30303DBB263
:102BB0003B4A6A3352F82330BA681A601BE0FB685C
:102BC0001B78C3F30303DBB2354A70339B00134415
:102BD0005B681B68BB60BB7A43F02003BB72FB6879
:102BE0001B78C3F30303DBB22D4A70339B001344FD
:102BF0005B68BA681A60FA68137943F020031371AE
:102C000047E0FB795BB2002B1EDAFB681B78C3F34D
:102C10000303DBB2224A6A3352F823301B68BB60DD
:102C2000BB7A6FF34513BB72FB7A43F01003FB7260
:102C3000FB681B78C3F30303DBB2194A6A3352F80B
:102C40002330BA681A601FE0FB681B78C3F30303E4
:102C5000DBB2134A70339B0013445B681B68BB6094
:102C6000BB7A6FF34513BB72FB7A43F01003FB7220
:102C7000FB681B78C3F30303DBB2094A70339B0084
:102C800013445B68BA681A60FA6813796FF34513E6
:102C90001371002318461437BD465DF8047B704756
:102CA0006800FF1F80B485B000AF0346FB71FB795D
:102CB00003F00F03342202FB03F31B4A1344FB60AF
:102CC000FB681B7823F07F03DBB2002B04D0FB688A
:102CD0005A6822F008025A60FB681B7823F07F03D1
:102CE000DBB2002B04D1FB685A6822F010025A6054
:102CF000FA6813796FF345131371FB6800221A61A8
:102D0000FB6800229A61FB6800229A62FB6800223D
:102D1000DA62FB6800221A63002318461437BD46A6
:102D20005DF8047B704700BF6800FF1F80B586B068
:102D300000AF0346FB710B46BB711346BB80984B3B
:102D4000D3F8A431DB693B61FB7903F00F03342234
:102D500002FB03F3924A13447B6178690021342219
:102D60000FF0C5FB7B69FA791A707A69137943F021
:102D700004031371BB88DBB203F07F03D9B27A6915
:102D8000536861F3D12353607B691B78002B07D014
:102D90007A6993684FF6C07161F31203936005E09E
:102DA0007A699368402161F3120393607B691B7811
:102DB000C3F30303DBB21B027A4A1A447B69DA616C
:102DC0007B691B78C3F30303DBB21B02764A1A4408
:102DD0007B69DA607B691B78C3F30303DBB21A46B5
:102DE000724B53F822207B691A627B691B78C3F30C
:102DF0000303DBB21A466E4B53F822207B695A61FB
:102E00007B691B7823F07F03DBB2002B02D1BB79F7
:102E1000002B7AD17B691B78C3F30303DBB2604AD2
:102E20006A3352F823301B68FB607B7B43F08003DE
:102E30007B73BB7903F00303DAB2BB7B62F38303DA
:102E4000BB73BB79002B24D1BB88102B14D0102B63
:102E500002DC082B16D01BE0202B07D0402B00D023
:102E600016E0BB896FF30A03BB8111E0BB89012225
:102E700062F30A03BB810BE0BB89022262F30A03FF
:102E8000BB8105E0BB89032262F30A03BB8100BF5B
:102E900007E0BB88C3F30A039AB2BB8962F30A0353
:102EA000BB81FB7B43F01003FB73BB7B6FF34513CC
:102EB000BB73FEF70FFD034603F00F03D9B27A6927
:102EC000938861F3891393807B699B88C3F3831391
:102ED000DAB2FB8962F38913FB817B691B78C3F348
:102EE0000303DBB22E4A6A3352F82330FA681A60C1
:102EF0003A8A7B691B78C3F30303DBB219460123CB
:102F00008B409BB213439BB23B827B691B7823F0BF
:102F10007F03DBB2002B02D0BB79002B73D17B691E
:102F20001B78C3F30303DBB21D4A70339B001344C9
:102F30005B681B68BB607B7A43F080037B72BB7964
:102F400003F00303DAB2BB7A62F38303BB72BB798B
:102F5000002B2FD1BB88102B14D0102B02DC082B98
:102F600016D01BE0202B07D0402B00D016E03B8969
:102F70006FF30A033B8111E03B89012262F30A03EC
:102F80003B810BE03B89022262F30A033B8105E0AF
:102F90003B89032262F30A033B8100BF12E000BFBA
:102FA0006800FF1F0007002000000020CCD6FE1F95
:102FB000B0D6FE1FBB88C3F30A039AB23B8962F303
:102FC0000A033B81FB7A43F01003FB72BB7A6FF379
:102FD0004513BB727B691B78C3F30303DBB20F4A53
:102FE00070339B0013445B68BA681A607A8A7B6905
:102FF0001B78C3F30303DBB2194601238B409BB25A
:1030000013439BB27B82054BD3F8A4313A69DA6152
:10301000002318461837BD4680BD00BF6800FF1F5B
:1030200080B588B000AF0346FB71FB7903F00F0356
:10303000342202FB03F3544A1344BB6100233B6177
:10304000514BD3F8A431DB69FB60BB691B78C3F338
:103050000303DBB21A46012393407B61BB691B79F2
:1030600003F00403DBB2002B02D10123FB7785E0E0
:103070007B7C6FF3C7137B74FB7C43F04003FB74D2
:10308000FB7C43F00803FB74BB7C6FF34513BB74FC
:10309000BA6913796FF382031371BA6913796FF305
:1030A00045131371BB695A6822F010025A60BB695C
:1030B0005A6822F008025A60BB691B7823F07F032C
:1030C000DBB2002B06D1BB691B7903F00303DBB233
:1030D000002B12D1BB691B78C3F30303DBB22A4A6E
:1030E0006A3352F823303A691A60BA897B699BB215
:1030F000DB439BB213409BB2BB81BB691B7823F0BF
:103100007F03DBB2002B06D0BB691B7903F00303FE
:10311000DBB2002B23D1BB691B78C3F30303DBB203
:10312000194A70339B0013445B683A691A60FA8944
:103130007B699BB2DB439BB213409BB2FB81134B79
:103140001B685B7B012B0AD10F4BD3F8A4310E4ACD
:10315000D2F8A421516B7A69D2430A405A630A4BD0
:10316000D3F8A431FA68DA61BB699B88C3F383138F
:10317000DBB21846FEF7E6FB0023FB77FB7F184621
:103180002037BD4680BD00BF6800FF1F6400FF1FE1
:1031900080B483B000AF084BD3F8A4319B683B6088
:1031A0003B68C3F30D239BB2FB80FB8818460C37AA
:1031B000BD465DF8047B70476800FF1F80B400AF18
:1031C0000B4B93F8FE3103F00103DBB2002B09D067
:1031D000074B93F8FE3103F00403DBB2002B01D060
:1031E000012300E000231846BD465DF8047B7047CC
:1031F0006800FF1F80B582B000AF78607B681A4A14
:10320000934203D07B68194A934203D1184800F0D7
:1032100079F916E07B68174A934203D07B68164A17
:10322000934203D1154800F06DF90AE07B68144A17
:10323000934203D07B68134A934202D1124800F0B4
:1032400061F97B680322DA6000BF7B68DB6803F00A
:103250000103002BF9D07B681B6C23F00F027B6805
:103260001A640837BD4680BD0000034000020340D9
:10327000080003400000024800020248080002481B
:1032800000400248004202480840024880B58EB023
:1032900000AFF860B9607A60BB68632B58D97B686F
:1032A000002B55D0FDF7A2F902462E4BA3FB0223BB
:1032B0005B093B62BB682B4AA2FB03235B09BB6033
:1032C0000123FB620123BB6240F2FF337B6240F2C9
:1032D000FF333B6322E03B6A3A6B02FB03F2BB68BD
:1032E000796801FB03F3B2FBF3F3FB61FB699B0A13
:1032F000BB61FB69C3F309037B61BB69B3F5806FF5
:1033000009D27A697B6A9A4205D27B697B62BB6982
:10331000BB623B6BFB623B6B013B3B633B6B002B3C
:10332000D9D1FB6A43F40042FB681A61FB685A6911
:103330000D4B13407A68013A92021A43BB6A013B73
:103340001B041A43FB685A61002387F8373002E0F8
:10335000012387F8373097F8373018463837BD469D
:1033600080BD00BF1F85EB51EF8000FC80B485B0AD
:1033700000AFF860B9603B601346FB71FB68D3F89F
:10338000083123F0E062FB68C3F80821FB68D3F83A
:103390000821094B13403A681102BA681143FA79BF
:1033A00012060A431A43FB68C3F808211437BD46C6
:1033B0005DF8047B704700BFC0C0FFF880B485B0E3
:1033C00000AFF860B9603B601346FB71FB68D3F84F
:1033D0000C3123F0E062FB68C3F80C21FB68D3F8E2
:1033E0000C210A4B13403A681102BA681143FA796A
:1033F00012060A43134343F08052FB68C3F80C21C2
:103400001437BD465DF8047B704700BFC0C0FFEFB6
:1034100080B485B000AFF8600B467A60FB72FB6841
:10342000D3F80C3123F0E062FB68C3F80C21FB6891
:10343000D3F80C3123F47C527B681B021A43FB7ACD
:103440001B061A43FB68C3F80C211437BD465DF810
:10345000047B704780B485B000AFF8600B467A609B
:10346000FB72FB689A69FB7A072101FA03F3DB43DD
:103470001A40FB7A796801FA03F31A43FB689A61F0
:103480001437BD465DF8047B704700BF80B485B03B
:1034900000AFF8600B467A60FB72FB68D3F8082136
:1034A000FB7A072101FA03F3DB431A40FB7A7968C0
:1034B00001FA03F31A43FB68C3F808211437BD4629
:1034C0005DF8047B704700BF80B485B000AFF86042
:1034D0000B467A60FB72FB68D3F80C21FB7A07215C
:1034E00001FA03F3DB431A40FB7A796801FA03F32C
:1034F0001A43FB68C3F80C211437BD465DF8047B02
:10350000704700BF80B582B000AF78607B68124A18
:10351000934208D14FF40060FDF7DCF94FF40060EE
:10352000FDF748F814E07B680C4A934206D10C483A
:10353000FDF7D0F90A48FDF73DF809E07B68094A34
:10354000934205D10848FDF7C5F90748FDF732F861
:103550000837BD4680BD00BF080003400800024890
:1035600080000010084002480001001098B500AF2C
:10357000054A4FF0005314460FCB84E80F0004F0C7
:103580003BFB04F0B7FB98BDC4FF032080B584B0BB
:1035900000AF2F4BDB6803F48033002B3ED02D4B64
:1035A000DB6803F00103002B02D02B4BFB6002E031
:1035B00004F082FBF860274B1B6803F00403002B28
:1035C00020D0244B9B6803F070631B0E0133BB605B
:1035D000204B9B6803F4FE431B0A01337B601D4BA9
:1035E0009B6803F4FE031B0C01333B60BB683A6825
:1035F00002FB03F3FA68B2FBF3F37A6802FB03F30E
:10360000FB600DE0134B9B6803F07F0301333B60CD
:10361000FA683B68B2FBF3F3FB6001E00E4BFB6022
:103620000B4BDB68DBB20133FA68B2FBF3F3FB60F0
:10363000074B1B6903F001030133FA68B2FBF3F394
:10364000FB60064AFB6813601037BD4680BD00BFB3
:10365000004600501047005000366E01C0FF0320A6
:1036600080B584B000AF7860144B1B68002B02D18A
:10367000124B134A1A60114B1B68FB607B680333C3
:1036800023F003037B600D4B1A687B6813440D4ADB
:10369000934207D2094B1A687B681344074A1360A8
:1036A000FB6806E00EF0D4FE02460C2313604FF0D8
:1036B000FF3318461037BD4680BD00BFE8D6FE1F59
:1036C000000E0020C0FF032080B400AFBD465DF8AF
:1036D000047B704780B485B000AF03463A60FB803E
:1036E0000B46BB80FB881B0A9BB27B72FB883B723C
:1036F0000023FB6000237B817B7A022B08D0032B05
:103700000BD0012B21D1164BFB6012237B811CE0D7
:10371000144BFB603E237B8117E03B7A012B09D0E1
:10372000022B0CD0002B00D00EE00F4BFB600423CB
:103730007B8109E00D4BFB6012237B8104E00C4B85
:10374000FB6010237B8100BF00BF3B68FA681A60F2
:103750007B8918461437BD465DF8047B704700BF6F
:10376000C0260108D4260108142701087C27010877
:10377000E427010880B483B000AF0346FB71FB79F6
:1037800003F00F03DAB2074B83F83C21FB7923F0F7
:103790007F03DAB2034B83F83D210C37BD465DF859
:1037A000047B70476005FF1F80B400AF084B93F89F
:1037B0003E31DBB25B0803F00103DBB2002B14BF28
:1037C00001230023DBB21846BD465DF8047B704739
:1037D0006005FF1F80B400AF054B93F83E2122F037
:1037E000020283F83E21BD465DF8047B704700BFAE
:1037F0006005FF1F80B400AFBD465DF8047B7047D5
:1038000080B483B000AF134B93F83C311A462C239D
:1038100003FB02F30F4A134404337B607B685B684D
:103820001B0903F00103DBB2002B09D17B685B6845
:103830005B0803F00103DBB2002B01D0012300E0A1
:10384000002303F00103DBB218460C37BD465DF8D8
:10385000047B70476005FF1F80B483B000AF0E4B40
:1038600093F83C311A462C2303FB02F30A4A134413
:1038700004337B607B685B685B0903F00103DBB2A8
:10388000002B14BF01230023DBB218460C37BD46C2
:103890005DF8047B704700BF6005FF1F80B483B0F4
:1038A00000AF0F4B93F83C311A462C2303FB02F375
:1038B0000B4A134404337B607B681B7823F07F033F
:1038C000DBB2002B03D07B689B699BB202E07B6874
:1038D0009B689BB218460C37BD465DF8047B704769
:1038E0006005FF1F80B582B000AF7860FFF75CFF16
:1038F0000346002B00F0AE80584B9B889AB27B6841
:103900009B7C9BB29A4240F0A580544B5B78DBB223
:10391000203B032B00F29E8001A252F823F000BF4F
:103920008539000831390008F7390008273A0008BE
:103930004A4B1B78DBB2A12B23D1FFF74BFF00BF13
:10394000FFF75EFF034683F00103DBB2002BF7D1E4
:103950007B689B69184600F0D3FE7B681B7F184686
:1039600000F062FE7B685B7F184600F05DFE7B68BE
:103970009B7F184600F058FE00F0D2FDFFF73AFF9B
:1039800068E067E0354B1B78DBB2212B32D1FFF7C3
:1039900021FF05E0324B1B78DBB2002B00D159E050
:1039A000FFF75AFF034683F00103DBB2002BF1D18E
:1039B00000F0DAFE02467B689A6100F069FE034679
:1039C0001A467B681A7700F063FE03461A467B6846
:1039D0005A7700F05DFE03461A467B689A77FFF738
:1039E00009FF204B1B68002B04D01E4B1B68786816
:1039F00098472FE02EE0194B1B78DBB2212B11D119
:103A0000FFF7E8FEFFF7F6FE144B5B889AB27B687F
:103A10009A82144B5B68002B04D0124B5B68786869
:103A2000984717E016E00D4B1B78DBB2212B10D125
:103A3000FFF7D0FEFFF7DEFE0A4B9B68002B08D095
:103A4000084B9B68054A528892B2D2B278681146F8
:103A5000984700BF0837BD4680BD00BF5803FF1F11
:103A60005503FF1F28D0FE1F80B584B000AF7860DB
:103A70000123FB737B681433184600210C220EF0DF
:103A800036FD7B6802221A717B6802229A727B687B
:103A900003221A747B681846012100F09DFE03463C
:103AA00083F00103DBB2002B01D00023FB737B68A2
:103AB00006331846012100F08FFE034683F0010310
:103AC000DBB2002B01D00023FB737B680C3318465C
:103AD000012100F081FE034683F00103DBB2002BDD
:103AE00001D00023FB73FB7B18461037BD4680BD19
:103AF00080B582B000AF78600C4B1B78DBB2042B32
:103B000010D17B689B69002B0CD07B681B78184612
:103B1000FFF730FEFFF774FE0346002B02D07868F3
:103B200000F030F80837BD4680BD00BF5503FF1FC9
:103B300080B586B000AFF860B9601346FB80002303
:103B4000FB750F4B1B78DBB2042B11D1FB689B6913
:103B5000002B0DD0FB681B781846FFF70BFEFB8887
:103B6000B8681946002200F06FFA0346FB7501E0C1
:103B70000223FB75FB7D18461837BD4680BD00BF8C
:103B80005503FF1F80B584B000AF78600023FB733E
:103B90000F4B1B78DBB2042B12D17B689B69002B87
:103BA0000ED07B681B781846FFF7E4FDFFF776FE22
:103BB0000346002B01D000F0B3FC0023FB7301E0AF
:103BC0000223FB73FB7B18461037BD4680BD00BF48
:103BD0005503FF1F80B584B000AF78600023FB81E0
:103BE000144B1B78DBB2042B1ED17B689B69002B26
:103BF0001AD07B689B791846FFF7BCFDFFF72CFEB7
:103C00000346002B0ED0FFF749FE0346002B04D1DC
:103C100000F038FC0023FB8106E0FFF73FFE03467F
:103C2000FB8101E00023FB81FB8918461037BD466C
:103C300080BD00BF5503FF1F80B483B000AF0346B3
:103C4000FB7197F90730002B0BDB084997F9073018
:103C50005B09FA7902F01F02012000FA02F241F832
:103C600023200C37BD465DF8047B704700E100E07F
:103C700080B483B000AF0346FB7197F90730002B87
:103C800010DB0B4997F907305B09FA7902F01F0244
:103C9000012000FA02F2203341F82320BFF34F8FB6
:103CA000BFF36F8F0C37BD465DF8047B704700BFD4
:103CB00000E100E080B483B000AF0346FB71FB7904
:103CC00003F00F03DAB2074B83F83C21FB7923F0B2
:103CD0007F03DAB2034B83F83D210C37BD465DF814
:103CE000047B70476005FF1F80B584B000AF78602B
:103CF0000023FB731F4B00229A741E4B82221A7002
:103D00001C4B40225A801B4B02221A71194B002275
:103D10005A71184B03229A71164B40221A81154B87
:103D200002229A72134B0022DA72124B81221A730A
:103D3000104B0822DA810F4B03221A740D4B00221C
:103D40005A740D4800F0A4F80346002B0AD10B4B1F
:103D50001B68184600F0AEFE0346002B04D001237A
:103D6000FB7301E00123FB73FB7B18461037BD4654
:103D700080BD00BF3403FF1F00D0FE1F4CD0FE1FCC
:103D800080B500AF00F034FF0346002B06D0054B92
:103D90001B78DBB2042B01D1012300E0002318467D
:103DA00080BD00BF5503FF1F80B584B000AF7860B1
:103DB0000B467B800023FB737B88002B02D07B6843
:103DC000002B02D10623FB7312E07B880B48796835
:103DD0001A46FFF7ADFE0346002B01D00623FB7306
:103DE0000648FFF7CFFE0346002B01D00623FB73E6
:103DF000FB7B18461037BD4680BD00BF3403FF1F54
:103E000080B584B000AF78600B467B800023FB73E5
:103E10000023BB810023BB737B88002B19D07B68F8
:103E2000002B16D00320FFF745FF7A8807F10C031B
:103E3000786811461A4600F08DF90346BB73BB7BC8
:103E4000052BF2D0BB7B002B02D00623FB7302E0D4
:103E500001E00623FB73FB7B18461037BD4680BD8F
:103E600080B582B000AF0023FB806B20FFF700FF1E
:103E70000648FFF7AFFE0346FB806B20FFF7DCFE32
:103E8000FB8818460837BD4680BD00BF3403FF1FBE
:103E900080B485B000AF78600023FB737B68002B93
:103EA0003CD0234B1B681B697A6812691A61204B4E
:103EB0001B681B697A6892689A601D4B1B681B69B6
:103EC0007A6812681A601A4B1B681B697A68D26894
:103ED000DA60174B1B681B697A6852685A60144B8A
:103EE0001B681B697A6852695A61114B1B681B6910
:103EF0007A68D269DA610E4B1B681B697A6892692D
:103F00009A610B4B1B681B697A68126A1A62084B2C
:103F10001B681B697A68526A5A6201E00123FB73CD
:103F2000FB7B18461437BD465DF8047B704700BF25
:103F30004CD0FE1F80B500AF81200F49402200F019
:103F400063FE82200D49402200F05EFE03200C49F2
:103F5000402200F059FE0B48FFF786FD0346002B78
:103F600009D0094A92F83E3143F0010382F83E310C
:103F7000064B04221A7080BDB402FF1F7002FF1F9F
:103F8000F402FF1F3403FF1F6005FF1F5503FF1FCF
:103F900080B500AF0148FFF7A5FC80BD3403FF1FCB
:103FA00080B500AF0C4B93F83E3103F00103DBB258
:103FB000002B10D0084A92F83E316FF3000382F8CC
:103FC0003E31064B1B681846FFF78EFE0346002B5A
:103FD00001D100F031F880BD6005FF1F34D0FE1F15
:103FE00080B483B000AF7860034B01221A700C37A5
:103FF000BD465DF8047B7047B002FF1F80B483B0FC
:1040000000AF7860034B01225A700C37BD465DF853
:10401000047B7047B002FF1F80B483B000AF7860AC
:104020000B46FB70034B01229A700C37BD465DF8BE
:10403000047B7047B002FF1F80B500AF00F0CCFDDD
:104040000346184680BD00BF80B588B000AFF86059
:104050000B467A607B813E4B93F83C311A462C2309
:1040600003FB02F33A4A13440433BB610023FB838E
:104070000023BB837B68002B07D07B681B887A8971
:10408000D31A7B817B681B88BB8358E0BB695B6864
:104090001B0903F00103DBB2002B00D04FE000F05E
:1040A00091FA0346002B2FD0BB691A6ABB699B6942
:1040B000D21A7B899A4202D97B89FB8307E0BB69CC
:1040C0001B6A9AB2BB699B699BB2D31AFB83BB691B
:1040D000DA69BB699B69D118BB8BFA681A44FB8B00
:1040E000084611461A460EF0F7F9BB699A69FB8B30
:1040F0001A44BB699A61BA8BFB8B1344BB837A89E0
:10410000FB8BD31A7B811AE000F00AFA7B89BA692B
:104110009288C2F38612D2B2934207DA7B68002BF0
:1041200004D07B68BA8B1A8005230CE000F062F99A
:104130000346FB75FB7D002B01D0FB7D03E07B89F3
:10414000002BA3D1002318462037BD4680BD00BFF9
:104150006005FF1F80B588B000AFF8600B467A603D
:104160007B81394B93F83C311A462C2303FB02F335
:10417000354A13440433BB610023FB830023BB8314
:104180007B68002B07D07B681B887A89D31A7B81D8
:104190007B681B88BB834EE0BB695B68DB0803F070
:1041A0000103DBB2002B00D045E000F00BFA034620
:1041B000002B2DD0BB699A687B899A4202D97B89F2
:1041C000FB8302E0BB699B68FB83BB8BFA68D11859
:1041D000BB691A69BB69DB681A44FB8B0846114648
:1041E0001A460EF079F9BB699A68FB8BD21ABB6943
:1041F0009A60BB69DA68FB8B1A44BB69DA60BA8BD8
:10420000FB8B1344BB837A89FB8BD31A7B8112E02F
:1042100000F038F97B68002B04D07B68BA8B1A80D9
:1042200005230CE000F0E6F80346FB75FB7D002B50
:1042300001D0FB7D03E07B89002BADD10023184624
:104240002037BD4680BD00BF6005FF1F80B483B02E
:1042500000AF0346FB7197F90730002B0BDB0849D1
:1042600097F907305B09FA7902F01F02012000FA82
:1042700002F241F823200C37BD465DF8047B7047FD
:1042800000E100E080B483B000AF0346FB7197F912
:104290000730002B10DB0B4997F907305B09FA79DF
:1042A00002F01F02012000FA02F2203341F823201D
:1042B000BFF34F8FBFF36F8F0C37BD465DF8047BA4
:1042C000704700BF00E100E080B483B000AF134B43
:1042D00093F83C311A462C2303FB02F30F4A134494
:1042E00004337B607B685B681B0903F00103DBB26E
:1042F000002B09D17B685B685B0803F00103DBB22C
:10430000002B01D0012300E0002303F00103DBB206
:1043100018460C37BD465DF8047B70476005FF1FEB
:1043200080B483B000AF0E4B93F83C311A462C2377
:1043300003FB02F30A4A134404337B607B685B6827
:104340005B0903F00103DBB2002B14BF0123002340
:10435000DBB218460C37BD465DF8047B704700BFE2
:104360006005FF1F80B483B000AF0B4B93F83C3166
:104370001A462C2303FB02F3074A134404337B60E1
:104380007B681B7823F07F03DBB218460C37BD46F1
:104390005DF8047B704700BF6005FF1F80B483B0E9
:1043A00000AF0023FB710C4B93F83C3119460A4ACD
:1043B0002C2303FB01F313449B689B0803F00103C8
:1043C000DBB2012B01D10123FB71FB7918460C37BD
:1043D000BD465DF8047B70476005FF1F80B500AFE8
:1043E000034B1B689B6B98470346184680BD00BF74
:1043F0006005FF1F80B582B000AF6423FB71FFF73B
:10440000EDFF0346BB80FFF7ADFF0346802B06D1CF
:10441000FFF75AFF0346002B08D000232CE0FFF7DC
:104420007FFF0346002B01D0002325E0144B1B78AF
:10443000FB70FB78002B01D102231DE0FB78052BDC
:1044400001D1032318E0FFF7A9FF0346002B01D099
:10445000012311E0FFF7C2FF03463B803A88BB8887
:104460009A4208D03B88BB80FB795A1EFA71002B18
:1044700001D1042300E0C6E718460837BD4680BDD9
:104480005503FF1F80B582B000AF244B93F83C3139
:104490001A462C2303FB02F3204A134404337B60A7
:1044A0007B685B685B0803F00103DBB2002B00D183
:1044B00030E01A4B1B68DB6A7A6810787A681169F9
:1044C0007A685269984703461A467B689A607B6807
:1044D0000022DA607B685B68DB0803F00103DBB273
:1044E000002B17D17B689B68002B13D17A689388C7
:1044F00043F0080393807A6893886FF345139380A1
:10450000064B1B689B6A7A6811787A68526908467C
:10451000114698470837BD4680BD00BF6005FF1FA4
:1045200080B582B000AF264B93F83C311A462C235D
:1045300003FB02F3224A134404337B607B685B680D
:104540001B0903F00103DBB2012B07D07B685B681A
:104550005B0803F00103DBB2002B00D12CE07A688A
:10456000938843F0100393807B68DA697B689A62D2
:104570007B689A697B685A627B6800229A616B202B
:10458000FFF780FE0E4B1B681B6B7A6810787A6809
:10459000916A7A68526A984738607B689A6A3B6881
:1045A0001A447B689A627B685A6A3B68D21A7B68B5
:1045B0005A626B20FFF74AFE0837BD4680BD00BF38
:1045C0006005FF1F80B483B000AF164B93F83C31F9
:1045D0001A462C2303FB02F3124A134404333B60B4
:1045E0000023FB713B681B7823F07F03DBB2002BB9
:1045F00009D03B689A693B681B6A9A4234BF012321
:104600000023FB7106E03B689B68002B14BF01236D
:104610000023FB71FB7918460C37BD465DF8047B1F
:10462000704700BF6005FF1F80B485B000AF034630
:10463000FB71164B93F83C311A462C2303FB02F313
:10464000124A13440433BB600023FB73BB689A69AE
:10465000BB681B6A9A420DD2BB68DA69BB689B696A
:104660001344FA791A70BB689B695A1CBB689A613B
:104670000123FB73FB7B83F00103DBB2002BE5D14D
:104680001437BD465DF8047B704700BF6005FF1F0F
:1046900080B483B000AF194B93F83C311A462C23F9
:1046A00003FB02F3154A134404333B600023FB7100
:1046B0000023BB713B689B68002B12D03B681A69D2
:1046C0003B68DB6813441B78BB713B68DB685A1C92
:1046D0003B68DA603B689B685A1E3B689A6001231E
:1046E000FB71FB7983F00103DBB2002BE2D1BB79D4
:1046F00018460C37BD465DF8047B70476005FF1F08
:1047000080B485B000AF7860164B93F83C311A4600
:104710002C2303FB02F3134A13440433BB6000232E
:10472000FB73BB689A69BB681B6A033B9A420DD254
:10473000BB68DA69BB689B6913447A681A60BB6816
:104740009B691A1DBB689A610123FB73FB7B83F095
:104750000103DBB2002BE4D11437BD465DF8047BC6
:10476000704700BF6005FF1F80B485B000AF194BD4
:1047700093F83C311A462C2303FB02F3154A1344E9
:1047800004337B600023FB730023BB607B689B6862
:10479000032B12D97B681A697B68DB6813441B689A
:1047A000BB607B68DB681A1D7B68DA607B689B688E
:1047B0001A1F7B689A600123FB73FB7B83F0010364
:1047C000DBB2002BE2D1BB6818461437BD465DF85A
:1047D000047B70476005FF1F90B585B000AF78601F
:1047E0000B46FB700023FB7392E0FA7B13465B00E1
:1047F00013445B001A467B6813441B7803F00F03D5
:10480000BB73484B1B68DC69FA7B13465B0013449F
:104810005B001A467B6813441878FA7B13465B00EA
:1048200013445B001A467B6813441979FA7B1346DC
:104830005B0013445B001A467B6813445B881A468E
:10484000A0470346002B01D0002367E0B97BFA7B29
:1048500013465B0013445B001A467B6813441878C8
:10486000304A2C2303FB01F3134402461A71B87B30
:10487000FA7B13465B0013445B001A467B681344C3
:104880005B88DBB203F07F03D9B2264A2C2303FBFB
:1048900000F31A44138961F38C131381BB7B214A03
:1048A0002C2101FB03F31A44137A43F00103137222
:1048B000BB7B1C4A2C2101FB03F31A44138943F0F0
:1048C00002031381FA7B13465B0013445B001A4614
:1048D0007B6813441B78DBB25BB2002B15DB114BFA
:1048E0001B689C6AFA7B13465B0013445B001A4604
:1048F0007B6813441878BB7B0A4A2C2101FB03F325
:10490000134410339B681946A047FB7B0133FB73AC
:10491000FA7BFB789A42FFF468AF012318461437FC
:10492000BD4690BD6005FF1F80B400AF044BDB683F
:1049300003F4E0631B0A1846BD465DF8047B70472C
:1049400000ED00E080B483B000AF0346FB7197F93F
:104950000730002B0BDB084997F907305B09FA7920
:1049600002F01F02012000FA02F241F823200C3766
:10497000BD465DF8047B704700E100E080B483B081
:1049800000AF0346FB7197F90730002B10DB0B4992
:1049900097F907305B09FA7902F01F02012000FA4B
:1049A00002F2203341F82320BFF34F8FBFF36F8F04
:1049B0000C37BD465DF8047B704700BF00E100E0A6
:1049C00080B483B000AF0346FB7197F90730002B2A
:1049D0000CDB094997F907305B09FA7902F01F02ED
:1049E000012000FA02F2603341F823200C37BD4663
:1049F0005DF8047B704700BF00E100E080B483B045
:104A000000AF03463960FB7197F90730002B0ADBD2
:104A10000D4997F907303A68D2B29200D2B20B44EE
:104A200083F800230AE00949FB7903F00F03043BF4
:104A30003A68D2B29200D2B20B441A760C37BD4615
:104A40005DF8047B704700BF00E100E000ED00E08E
:104A500080B489B000AFF860B9607A60FB6803F099
:104A60000703FB61FB69C3F10703062B28BF06237D
:104A7000BB61FB690633062B02D9FB69013B00E0F1
:104A800000237B61BB69012202FA03F35A1EBB6853
:104A90001A407B699A407B69012101FA03F3591E90
:104AA0007B680B40134318462437BD465DF8047BF2
:104AB000704700BF80B584B000AF78600023FB73FF
:104AC000FDF794FC3D4800214FF4A2720DF00FFD5C
:104AD0003B4B00221A70394B3A4A1A60374B01227D
:104AE00083F83B21354B384A1A62344B4FF48072BD
:104AF0005A62324B354A5A61304B4FF480729A6198
:104B00002E4A13796FF3C71313712C4A137A43F0AB
:104B100001031372294A138943F002031381274AC0
:104B20001389402161F38C1313817B681B69DB6857
:104B3000002B09D07B681B695B69002B04D07B6864
:104B40001B699B68002B02D10123FB7331E07B685A
:104B50001B691A4AC2F840310120FBF78FFE7B68BF
:104B60001B4A5A607B681B4A9A60144B1B685B683F
:104B70007A68104698470346FB73FB7B002B0AD1EB
:104B800000F088F80D4B1B68DB69002000214022F3
:104B900098470346FB73FB7B002B0AD0FDF726FCEE
:104BA000064B1B689B6898470346002B01D100F019
:104BB00087F8FB7B18461037BD4680BD6005FF1F98
:104BC0005503FF1F802601086003FF1F6004FF1FBD
:104BD000F55200085155000880B500AF034B1B6823
:104BE000DB6898470346184680BD00BF6005FF1F7D
:104BF00080B500AF034B1B68DB6B98470346184634
:104C000080BD00BF6005FF1F80B485B000AF0346C4
:104C10003960FB711346BB80FB7903F00F03FB6027
:104C2000FB795BB2002B12DA144AFB682C2101FBE2
:104C300003F3134418333A689A60BA880F49FB6843
:104C40002C2000FB03F30B4420335A6011E00B4A85
:104C5000FB682C2101FB03F3134410333A685A60BC
:104C6000BA880649FB682C2000FB03F30B44103381
:104C70009A601437BD465DF8047B70476005FF1FDE
:104C800080B500AF024B1B681846FDF7FBFA80BDEC
:104C90004CD0FE1F80B500AFFFF746FE0346184616
:104CA0003B210022FFF7D4FE03466B201946FFF795
:104CB000A5FE6B20FFF784FE6B20FFF743FE80BD4F
:104CC00080B500AF6B20FFF77BFE6B20FFF756FE31
:104CD00080BD00BF80B500AF094B1B685B6A8020B8
:104CE000012198470346002B09D1054B012283F887
:104CF0003B21034B1B689B6A00201821984780BD0D
:104D00006005FF1F80B588B000AF0023FB61002362
:104D10007B6000233B60954B5B889BB2DBB2BB6141
:104D2000934BD3F84031DB68002B04D0904BD3F881
:104D30004031DB6898478E4B93F83E31DBB25B081D
:104D400003F00103DBB2012B40F02882874B5B7834
:104D5000DBB20C2B00F21F8201A252F823F000BF3D
:104D6000FB4E0008954D000897510008C9500008F7
:104D700097510008F34F0008414E00088350000887
:104D8000314E000837500008C14E00088950000815
:104D900091510008754B1B78DBB203F00303022B23
:104DA00034D1724B9B889BB203F00F037B61714B34
:104DB0001B78DBB2042B04D06C4B9B889BB2002B7E
:104DC00021D16B4A7B692C2101FB03F313441B7A2D
:104DD000C3F30003DBB2012B15D1654A7B692C219B
:104DE00001FB03F31A4413896FF382031381604BB1
:104DF0001B685B6A5D4A928892B2D2B2104600216B
:104E0000984700BFCAE1FFF765FFC7E1574B1B7822
:104E1000DBB203F00303002B07D1554A92F83E3171
:104E20006FF3820382F83E31B8E1FFF753FFB5E13B
:104E30004F4B1B681B6B00204F4901229847ADE187
:104E40004B4BD3F840315B69002B13D0474B5B8849
:104E50009BB23B61454B9B889BB2FB60444BD3F8B4
:104E600040315B693A6990B2FA6891B23A1D98474D
:104E70000346FB61FB69002B02D1FFF72BFF8DE19D
:104E80003A4BDB889BB21A46FB699A4203D8374BF0
:104E9000DB889BB2FB61364B1B681B6B7A6800207A
:104EA0001146FA6998470346BB60FA69BB68D31A92
:104EB0002F4A93627A68BB6813442D4AD3626DE12E
:104EC0002C4B1B78DBB2042B0ED1294B1B681B6BC0
:104ED000264A928892B202F59C7225490A44002023
:104EE00011460122984759E1224B1B78DBB2032B74
:104EF00002D1FFF7EFFE51E150E11C4B1B78DBB212
:104F000003F00303002B19D1194B93F83E31C3F37F
:104F10008003DBB25B00DBB21A46154B93F83E31DF
:104F2000C3F3C003DBB213433B60114B1B681B6B25
:104F30003A4600201146022298472FE10B4B1B787E
:104F4000DBB203F00303012B18D10A4B1B78DBB251
:104F5000042B13D100233B60054B1B681B6B3A46A7
:104F6000002011460222984718E100BF5803FF1F96
:104F70006005FF1F5503FF1F9906FF1F8C4B1B7811
:104F8000DBB203F00303022B30D1894B9B889BB229
:104F900003F00F037B61874B1B78DBB2042B04D03B
:104FA000834B9B889BB2002B20D1834A7B692C21A9
:104FB00001FB03F313441B7AC3F30003DBB2012BA1
:104FC00014D17D4A7B692C2101FB03F313449B68B8
:104FD0009B0803F00103DBB23B60774B1B681B6B44
:104FE0003A460020114602229847D7E0FFF772FEAA
:104FF000D4E0BB69002B03D16E4B02221A7002E091
:105000006C4B03221A706C4B1B689B69BA69D2B255
:105010001046002198470346002B0BD1664BD3F86E
:1050200040311B69002B05D0634BD3F840311B691D
:105030009847B3E0B2E0BB69DAB25F4B83F839213D
:105040005D4BD3F840319B68002B04D05A4BD3F80A
:1050500040319B689847BB69002B03D1554B032215
:105060001A709BE0544B93F83E3103F00103DBB21E
:10507000002B03D04F4B04221A708FE0FFF72AFE5B
:105080008CE0FFF727FE89E04A4B1B78DBB2042B4C
:1050900011D1474B5B889BB23B61454B9B889BB2D0
:1050A000FB603B69D9B2444AFB68134403F59C7327
:1050B0000A461A7072E03F4B1B78DBB2032B02D119
:1050C000FFF708FE6AE069E0BB69022B02D1FFF737
:1050D00001FE63E0374B1B78DBB2042B38D1BB6990
:1050E000002B0AD0012B00D031E0334A92F83E3138
:1050F00043F0040382F83E3129E02D4B9B889BB29C
:1051000003F00F037B612C4A7B692C2101FB03F325
:1051100013441B7AC3F30003DBB2002B02D1FFF769
:10512000D9FD13E0244A7B692C2101FB03F31A44C7
:10513000138943F0040313811F4B1B685B6A1C4AED
:10514000928892B2D2B210460121984700BF25E062
:10515000184B1B78DBB2032B17D1BB69002B14D182
:10516000134B1B78DBB203F00303022B0DD1104B62
:105170009B889BB2DBB2002B07D10F4A138943F007
:1051800004031381FFF7A6FD08E0FFF7A3FD05E088
:10519000FFF7A0FD02E0FFF79DFD00BF064B93F86F
:1051A0003E2122F0020283F83E212037BD4680BD19
:1051B0005803FF1F5503FF1F6005FF1F80B500AF99
:1051C000104B93F83B31022B0AD10E4B1B689B6AA4
:1051D0000020002198470B4B052283F83B2110E06B
:1051E000084B93F83B31032B0BD1064B1B689B6A92
:1051F000044A1279104618219847024B012283F87D
:105200003B2180BD6005FF1F80B500AF124B93F8B6
:105210003B31042B0DD1FFF775FD0F4B1B681B6B4A
:1052200000200021002298470B4B032283F83B21EA
:1052300010E0094B93F83B31052B0BD1064B1B6853
:105240009B6A054A1279104618219847024B0122A1
:1052500083F83B2180BD00BF6005FF1F80B582B091
:1052600000AF224B1B68DB6A0020214908229847C7
:1052700003467B601D4B93F83E2142F0020283F807
:105280003E217B68082B2DD1194BDB889BB2002B6C
:105290000DD1164B032283F83B21FFF733FD134B4F
:1052A0001B681B6B00200021002298471AE0104B5E
:1052B0001B78DBB2DBB25BB2002B06DA0B4B0222AF
:1052C00083F83B21FFF71EFD0CE0084B042283F816
:1052D0003B21064B1B689B6A054AD28892B200208C
:1052E000114698470837BD4680BD00BF6005FF1FC7
:1052F0005803FF1F80B584B000AF0346FB71FB79F4
:10530000092B00F21C8101A252F823F0E754000897
:10531000C75400088D540008A754000835530008EE
:105320003F55000813550008EF5400083F5500088A
:1053300073540008844B02221A70844B012283F8B4
:105340003B21824A92F83E316FF3820382F83E316C
:105350000723FB6060E0FB68C3F107037B4A2C2155
:1053600001FB03F31A4413896FF304131381FB68E1
:10537000C3F10703754A2C2101FB03F31A44138977
:105380006FF3C3031381FB68C3F107036F4A2C213A
:1053900001FB03F31A4413896FF382031381FB6843
:1053A000072B36D0FB68C3F10703684A2C2101FBA9
:1053B00003F313441B7AC3F30003DBB2002B28D0A2
:1053C000624B1B681B6AFA68C2F107025F492C2016
:1053D00000FB02F20A441279104698470346002B5C
:1053E00017D1FB68C3F10703584A2C2101FB03F3D3
:1053F0001A44137A6FF300031372FB68C3F10703B7
:10540000524A2C2101FB03F31A4413896FF3410321
:105410001381FB68013BFB60FB68002B9BD14B4B6E
:10542000002283F839210123FB600AE0FB68C3F105
:105430000103464A1344002283F83821FB68013BEC
:10544000FB60FB68002BF1D1404B1B689B6A3F4A15
:1054500012791046182198473C4BD3F840315B6ACB
:10546000002B05D0394BD3F840315B6A984767E091
:1054700066E0364BD3F840311B6A002B05D0334B26
:10548000D3F840311B6A98475AE059E02F4BD3F8C4
:1054900040311B68002B05D02C4BD3F840311B68E2
:1054A00098474DE04CE0284B01221A70274BD3F867
:1054B00040315B68002B05D0244BD3F840315B684A
:1054C00098473DE03CE0204B00221A701F4BD3F878
:1054D00040315B68002B05D01C4BD3F840315B6832
:1054E00098472DE02CE0184B01221A7028E0174B4A
:1054F00093F83A21144B1A70144BD3F840319B693E
:10550000002B05D0114BD3F840319B69984717E029
:1055100016E00D4B1B78DAB20C4B83F83A210A4B9C
:1055200005221A70094BD3F84031DB69002B05D0F6
:10553000064BD3F84031DB69984701E000E000BF3B
:105540001037BD4680BD00BF5503FF1F6005FF1F1C
:1055500080B586B000AF03460A46FB711346BB71A7
:10556000FB7903F00F032C2202FB03F35E4A134482
:1055700004337B615C4B93F83C313B615A4B93F8AD
:105580003D31FB60FB7903F00F03DAB2564B83F831
:105590003C21FB7923F07F03DAB2534B83F83D21A2
:1055A000BB79012B13D0022B3AD0002B00D08EE018
:1055B0007A6993886FF3C30393804B4B93F83C3124
:1055C000002B00D002E0FFF749FE00BF7FE07A69C0
:1055D000938843F0200393807B699B68002B10D154
:1055E0007B690022DA60404B1B68DB6A7A691078BD
:1055F0007A6911697A695269984703461A467B6944
:105600009A607A6993886FF3C3039380364B93F85B
:105610003C31002B00D002E0FFF7F6FD00BF56E062
:105620007B695B6A002B17D02F4B1B681B6B7A6959
:1056300010787A69916A7A69526A9847B8607B698A
:105640005A6ABB68D21A7B695A627B699A6ABB68DC
:105650001A447B699A623AE07B691B7803F00F0376
:10566000DBB2002B21D17B699B69002B1DD07B69AC
:105670009B691E4AD28892B2934216D07B699B697D
:105680007A699288C2F38612D2B2B3FBF2F102FBBE
:1056900001F29B1A002B08D1134B1B681B6B7A6914
:1056A000127810460021002298477B6900229A61F7
:1056B0007A6993886FF3041393800B4B93F83C3112
:1056C000002B00D002E0FFF779FD00BF00BF3B696F
:1056D000DAB2054B83F83C21FB68DAB2024B83F85F
:1056E0003D211837BD4680BD6005FF1F5803FF1FD1
:1056F00080B483B000AF786039607B681A6C3B6817
:105700001A437B681A640C37BD465DF8047B70470A
:1057100080B483B000AF786039607B681A6C3B68F6
:10572000DB431A407B681A640C37BD465DF8047B86
:10573000704700BF80B483B000AF78607B689B6B1C
:10574000DBB223F07F03DBB218460C37BD465DF8B1
:10575000047B704780B483B000AF786039603B68E9
:105760004FF480329A407B689A660C37BD465DF8EC
:10577000047B704780B483B000AF786039607B6889
:10578000D3F808213B681A437B68C3F808210C371B
:10579000BD465DF8047B704780B483B000AF78608D
:1057A00039607B68D3F808213B68DB431A407B688B
:1057B000C3F808210C37BD465DF8047B704700BF75
:1057C00080B483B000AF78607B684FF40042C3F8C8
:1057D00018210C37BD465DF8047B704780B483B058
:1057E00000AF78607B68D3F8143103F48053002B4A
:1057F00014BF01230023DBB218460C37BD465DF809
:10580000047B704780B483B000AF78607B68D3F8C6
:10581000143103F40063002B14BF01230023DBB217
:1058200018460C37BD465DF8047B704780B483B0E2
:1058300000AF786039607B68D3F80C213B681A436D
:105840007B68C3F80C210C37BD465DF8047B7047BC
:1058500080B483B000AF786039607B68D3F80C21E6
:105860003B68DB431A407B68C3F80C210C37BD460C
:105870005DF8047B704700BF80B483B000AF7860F0
:105880007B684FF48042C3F818210C37BD465DF8A1
:10589000047B704780B483B000AF78607B68D3F836
:1058A000143103F00803002B14BF01230023DBB2E3
:1058B00018460C37BD465DF8047B704780B584B050
:1058C00000AF78600023FB737B685B685B68984778
:1058D0000346FB73FB7B18461037BD4680BD00BFF7
:1058E00080B586B000AFF860B9607A600423FB75BC
:1058F000FB685B6893F82930002B00D007E0F8685C
:10590000B9687A6800F024F80346FB7500BFFB7D98
:1059100018461837BD4680BD80B586B000AFF86028
:10592000B9607A600423FB75FB685B6893F82A30E2
:10593000002B00D007E0F868B9687A6800F064F8D6
:105940000346FB7500BFFB7D18461837BD4680BD7A
:1059500080B586B000AFF860B9607A600423FB754B
:10596000FB689B683B61FB685B6893F82930002B00
:1059700044D10223FB753B691B7EDBB283F001033C
:10598000DBB2002B3AD0BB68002B35D07B68002BF4
:1059900032D03B69BA681A603B697A689A603B69A1
:1059A0000022DA603B6901221A76FB685B6893F893
:1059B0002B30002B0CD0FB681B681846FFF700FF4C
:1059C000FB681B6818464FF08041FFF7D3FE06E0E6
:1059D000FB681B6818464FF40051FFF789FE00234F
:1059E000FB75FB681A68FB685B6893F82D301046FE
:1059F0001946FFF7AFFE01E00323FB75FB7D184658
:105A00001837BD4680BD00BF80B586B000AFF860D6
:105A1000B9607A600423FB75FB689B683B61FB6897
:105A20005B6893F82A30002B3ED10223FB753B695B
:105A30005B7EDBB283F00103DBB2002B34D0BB68AA
:105A4000002B2FD07B68002B2CD03B69BA685A60A2
:105A50003B697A681A613B6901225A763B690022E8
:105A60005A61FB685B6893F82C30002B10D0FB6800
:105A70001B681846FFF700FFF868796800F030F9F6
:105A8000FB681B6818464FF0C041FFF7CFFE06E0E9
:105A9000FB681B6818464FF44041FFF729FE0023BE
:105AA000FB7501E00323FB75FB7D18461837BD46E7
:105AB00080BD00BF80B584B000AF78607B689B6814
:105AC000FB60FB68DA68FB689B689A4240D27B689F
:105AD0005B6893F82B30002B27D01AE0FB68DA685C
