:020000040C00EE
:1000000000A0FE1F010200089902000899020008E2
:1000100099020008990200089902000800000000F7
:10002000000000000000000000000000118B050827
:100030009902000800000000718D0508E18D050897
:100040009902000899020008990200089902000824
:100050009902000899020008990200089902000814
:1000600099020008000000000000000000000000ED
:100070009902000800000000990200089902000897
:1000800099020008990200089902000899020008E4
:1000900099020008990200089902000899020008D4
:1000A00099020008990200089902000899020008C4
:1000B00099020008990200089902000899020008B4
:1000C00099020008990200089902000899020008A4
:1000D0009902000899020008990200089902000894
:1000E0009902000899020008990200089902000884
:1000F0009902000899020008990200089902000874
:100100009902000899020008990200089902000863
:100110009902000899020008990200089902000853
:100120009902000899020008990200089902000843
:100130009902000899020008990200089902000833
:100140009902000899020008990200089902000823
:100150009902000899020008990200089902000813
:10016000000000000000000000000000000000008F
:1001700099020008990200089902000899020008F3
:1001800099020008990200089902000899020008E3
:100190009902000899020008990200087D280308C6
:1001A000990200088D2803089902000899020008A6
:1001B00099020008990200089902000899020008B3
:1001C00099020008990200089902000899020008A3
:1001D0009902000899020008990200080000000036
:1001E00099020008C19A02089902000899020008C1
:1001F0009902000899020008990200080000000016
:10020000DFF874D01D4880471D4C1E4DAC4209DA02
:1002100021686268A368043BA2BFC858D050FAE7BF
:100220000C34F3E7184B194CA34208DA19685A68E2
:100230000020043AA4BF8850FBE70833F4E71448D1
:1002400080471448804700004836070C00A0FE1F76
:10025000F40E00004836070C00A0FE1F000000004E
:10026000F4AEFE1FE05E0000000000200000000071
:100270000000002000E8030000A0FE1F3929030849
:1002800048020008600200086002000878020008C6
:0C02900019FF050821E90508FEE7000041
:020000040C02EC
:1000000080B485B000AF78600B467B807B68FB6076
:10001000FB68002B02D0FB687A881A801437BD4633
:100020005DF8047B704700BF80B48DB000AF03461D
:100030003960FB801346BB80FB88FB620023BB62F8
:1000400000237B62002387F823303B68002B00F0FD
:10005000C380FB88002B00F0BF80BB88092B40F0D9
:10006000BB80FB6AFF2B1CDDFB6A1B12BB62FA6ABA
:100070005D4B1340002B03DA013B63F0FF030133B8
:10008000FB62BB6AFF2B0CDDBB6A1B127B62BA6A88
:10009000554B1340002B03DA013B63F0FF030133A0
:1000A000BB627B6ADBB23B72BB6ADBB27B72FB6A10
:1000B000DBB2BB72FB880333FB62FB6AFF2B1CDDE8
:1000C000FB6A1B12BB62FA6A474B1340002B03DA30
:1000D000013B63F0FF030133FB62BB6AFF2B0CDDC6
:1000E000BB6A1B127B62BA6A3F4B1340002B03DAD8
:1000F000013B63F0FF030133BB627B6ADBB23B73FE
:10010000BB6ADBB27B73FB6ADBB2BB73FB88063373
:10011000FB62FB6AFF2B1CDDFB6A1B12BB62FA6AE7
:10012000314B1340002B03DA013B63F0FF03013333
:10013000FB62BB6AFF2B0CDDBB6A1B127B62BA6AD7
:10014000294B1340002B03DA013B63F0FF0301331B
:10015000BB62C0233B74BB6ADBB27B74FB6ADBB25D
:10016000BB740023FB610BE0FB693A68134407F1A1
:100170001001FA690A4412781A70FB690133FB61B5
:10018000FB69022BF0DD0023BB610CE0BB6903338C
:100190003A68134407F10C01BA690A4412781A70DC
:1001A000BB690133BB61BB69022BEFDD00237B61BF
:1001B0000CE07B6906333A68134407F108017A6959
:1001C0000A4412781A707B6901337B617B69022BC8
:1001D000EFDD012387F8233097F8233018463437B2
:1001E000BD465DF8047B7047FF0000802DE9F043B9
:1001F0008DB002AFF860B9607A606B461E4600238E
:100200003B620923FB77FB7F013BBB61FA7F4FF029
:1002100000034FEAC30949EA52794FEAC208FA7F5C
:100220004FF00003DD0045EA5275D400FB7F073331
:10023000DB08DB00ADEB030D02AB00337B6140F26A
:100240000233FB8400233B6107F11003F868194671
:10025000102241F069F938623B6A002B63D03B6A97
:100260004FF6FE7293425EDC7B684FF6FE7293425D
:1002700059D87B6899B27A69FB7F9BB208461146D0
:100280001A46FFF7D1FE0346002B4CD0294803F055
:1002900067F8294B01221A82274BD9683B6A9AB228
:1002A0007B690093092301930846114640220023ED
:1002B00003F042FA0346FB84FB8C002B30D102E0B2
:1002C0000A203AF03BFB1C4B1B8A012BF8D01A4B3F
:1002D0001B8A002B24D1184B01221A82164BD86896
:1002E0003B6A99B2FB7F9CB27B689BB2BA68009272
:1002F00001930022234603F01FFA0346FB84FB8C84
:10030000002B0DD102E00A203AF018FB0A4B1B8AA1
:10031000012BF8D0084B1B8A002B01D10023FB8452
:10032000044803F045F8FB8CB54618462C37BD460B
:10033000BDE8F083EC0BFF1FF4AEFE1F80B58AB062
:1003400002AFF860B9607A600023BB6140F202330B
:10035000FB8300237B6107F11403F8681946102220
:1003600041F0E2F8B861BB69002B30D0BB69B3F54E
:10037000803F2CDA7B68B3F5803F28D2164802F024
:10038000EFFF164B01221A82144BD868BB6999B251
:100390007B689BB2BA68009201934022002303F06D
:1003A000CBF90346FB83FB8B002B0DD102E00A2027
:1003B0003AF0C4FA094B1B8A012BF8D0074B1B8A71
:1003C000002B01D10023FB83034802F0F1FFFB8BDC
:1003D00018462037BD4680BDEC0BFF1FF4AEFE1F54
:1003E00090B58BB002AFF860B9607A600023FB6112
:1003F0000023BB610023FB7500233B6140F2023305
:10040000BB827B68B3F5D86F00F28480FB685B68C1
:1004100018464349072240F03DF80346002B0AD115
:100420003F48B9687A68FFF7E1FE0346002B71D1B7
:100430000523FB616EE0FB685B68184639490722BB
:1004400040F028F80346002B02D10123FB6161E054
:10045000FB685B6818463449072240F01BF80346E6
:10046000002B0AD13048B9687A68FFF767FF034666
:10047000002B4FD10323FB614CE0FB685B681846FF
:100480002A49072240F006F80346002B42D107F123
:10049000100326481946102241F046F8B861BB699E
:1004A000002B37D0BB694FF6FE72934232DC7B687B
:1004B0004FF6FE7293422DD81D4802F051FF1D4B9E
:1004C00001221A821B4BD868BB6999B2FB7D9CB292
:1004D0007B689BB2BA68009201934022234603F0E6
:1004E0002BF90346BB82BB8A002B10D102E00A2005
:1004F0003AF024FA0F4B1B8A012BF8D00D4B1B8AC4
:10050000002B04D1BB8A002B01D10723FB610848D3
:1005100002F04EFFFB6918462437BD4690BD00BF70
:10052000B0930608B8930608C0930608C893060857
:10053000EC0BFF1FF4AEFE1F80B584B000AF7860F7
:100540000B46FB700023FB607868174907223FF0D9
:10055000A1FF0346002B02D10523FB601FE0786852
:10056000124907223FF096FF0346002B02D10123D8
:10057000FB6014E078680E4907223FF08BFF0346CA
:10058000002B02D10323FB6009E0786809490722A8
:100590003FF080FF0346002B01D10723FB60FB687F
:1005A00018461037BD4680BDB0930608B8930608BC
:1005B000C0930608C893060890B58BB002AFF860E8
:1005C000B9607A603B600023FB610023BB610023BC
:1005D0003B610023FB753B6800221A70FB68052B0A
:1005E00004D0072B16D0032B0BD01CE007F110030F
:1005F0003C481946102240F097FFB8610923FB756B
:1006000014E007F1100338481946102240F08CFF1F
:10061000B8610BE007F1100334481946102240F08E
:1006200083FFB86102E06023FB6100BF4FF4D86034
:1006300038F026F80246BB681A60BB681B68002BBE
:100640004AD07B684FF4D8621A60BB69002B43D054
:10065000BB694FF6FE7293423EDC7B68002B3BD0B9
:10066000234802F07DFE234B01221A82214BD868D9
:10067000BB6999B2FB7D9AB2BB681C687B6800932A
:10068000234602F0F7FF0346BB82BB8A002B20D132
:1006900002E00A203AF052F9164B1B8A012BF8D0DF
:1006A000144B1B8A48F20802934206D1BB68002211
:1006B0001A607B6800221A600BE00E4B1B8A002B2D
:1006C00007D0BB6800221A607B6800221A60602392
:1006D000FB61074802F06CFEFB6918462437BD46F3
:1006E00090BD00BFB0930608C0930608C8930608E3
:1006F000EC0BFF1FF4AEFE1F80B582B000AF786038
:100700003960786838F08AF80837BD4680BD00BF88
:1007100080B483B000AF78607B6818460C37BD4664
:100720005DF8047B704700BF80B584B002AF002342
:100730007B60424B1B78012B02D140F291137B600E
:100740007B68002B75D13D4800214FF484723FF047
:10075000D1FF002002F0A2FB012038F0B1FF0246D9
:10076000364B5A6000203649364A03F09BF9024660
:10077000324B9A6000203249324A02F0E7FE0246CC
:100780002E4BDA602D4B01221A822C4BDB68184667
:10079000002102F037FF03467B607B68002B01D00D
:1007A00006237B6002E00A2002F036FE234B1B8A00
:1007B000012BF8D0214B9B68002B0AD01F4BDB6824
:1007C000002B06D01D4B1B8A002B02D17B68062B09
:1007D00002D106237B602CE04EF2C4037B800F2302
:1007E0007B70164B01221A82144BD9687A887B1CC5
:1007F000009301230193084611460022002302F0D2
:100800009BFF03467B607B68002B01D006237B6047
:100810007B68002B0DD102E00A2002F0FDFD074BA2
:100820001B8A012BF8D0054B1B8A002B01D0062315
:100830007B607B6818460837BD4680BDF4AEFE1F5E
:100840000100020804AFFE1F80B582B000AF002394
:100850007B60114B1B78012B18D17B68002B15D1C5
:100860000D4B9B68184603F057F903467B600A4B13
:10087000DB68184602F0A4FE03461A467B68134361
:100880007B607B68002B01D006237B607B68184669
:100890000837BD4680BD00BFF4AEFE1F80B58AB0EC
:1008A00000AFF860B9607A60D0237B6200233B62BE
:1008B00000233B621BE03A6A13465B0013449B0033
:1008C0001A46FB681A4407F1140307CA83E80700B5
:1008D0007B69002B08D1BB697868194604223FF078
:1008E0000BFE00237B6206E03B6A01333B623A6AFF
:1008F000BB689A42DFD37B6A18462837BD4680BD65
:1009000080B586B000AFF860B9607A603B607B6804
:1009100000221A603B6800221A600023FB7524E065
:10092000FA7D13469B001344DB001033124A134434
:100930000833F8681946BA683FF0ACFD0346002B4F
:1009400010D1FA7D0C4913469B001344DB000B4485
:1009500010335A687B681A60FB7D01331A463B6886
:100960001A6005E0FB7D0133FB75FB7D052BD7D9B4
:100970001837BD4680BD00BFF4AEFE1F80B586B0FF
:1009800000AFF860B9607A603B60FB68013B7B6157
:100990007B6800221A603B6800221A607B69062B84
:1009A00032DC1F497A6913469B001344DB000B4479
:1009B00010335B68002B2FD07A6913469B001344D9
:1009C000DB001033164A134403F108027B681A60F7
:1009D0007A6913469B001344DB001033104A13441A
:1009E0000833184640F0FCF903465A1C3B681A606D
:1009F0000B497A6913469B001344DB000B44103308
:100A00005A68BB681A6007E07B6800221A603B687E
:100A100000221A600023BB601837BD4680BD00BFAE
:100A2000F4AEFE1F80B586B000AF786000237B6116
:100A30007B68013B3B611B4B5B6818464FF0FF3105
:100A400039F012FAF860FB68012B24D115493A6994
:100A500013469B001344DB000B4410335B68002BF0
:100A60000ED03A6913469B001344DB0010330D4A45
:100A7000134404331846002128223FF03BFE01E0D6
:100A800082237B61074B5B6818460021002200230C
:100A900038F0EAFE01E00A237B617B6918461837CB
:100AA000BD4680BDF4AEFE1F80B58AB000AFF860D1
:100AB000B9607A603B6000237B62002387F82330B3
:100AC0004FF0FF33FB610523BB61364B5B68184673
:100AD0004FF0FF3139F0C8F978617B69012B59D1AA
:100AE0000523BB611FE02F49BA6913469B001344DD
:100AF000DB000B4410335A68FB689A4203D1012390
:100B000087F8233012E02749BA6913469B00134443
:100B1000DB000B4410335B68002B01D1BB69FB6128
:100B2000BB69013BBB61BB69002BDCDA97F8233062
:100B3000002B26D1FB69B3F1FF3F22D03B681F2B6E
:100B40001DD81849FA6913469B001344DB000B4477
:100B50001033FA685A60FA6913469B001344DB00AD
:100B60001033104A13440833184679683A683FF046
:100B7000C3FCFB6901331A46BB681A6001E02123FC
:100B80007B62084B5B68184600210022002338F086
:100B90006BFE01E00A237B627B6A18462837BD465C
:100BA00080BD00BFF4AEFE1F90B5A5B004AF786065
:100BB0000023BB660023FB6700237B6600237B6763
:100BC0000023BB67002387F873300023FB660023F4
:100BD000BB6500237B6507F1600107F1680207F13F
:100BE00064037868FFF7CAFEBB6E002B00F0F1804B
:100BF000BA6E7B6E10467E491A463FF04BFC0346A8
:100C0000002B5AD1BC6EBB6E184640F0E9F8014685
:100C100007F1600207F15C032046FFF771FE3B6EAF
:100C2000002B04D0FB6D1846FFF7FCFEB867BA6EC8
:100C300007F1540310461946102240F075FC034694
:100C4000BB654423A7F852306A4802F089FB6A4B1F
:100C500001221A82684B9A6807F15803009307F142
:100C60000C03019307F15203029310460321102253
:100C7000002303F0BDF80346BB67BB6F002B04D015
:100C80005E481AF031FC0623BB67BB6F002B10D106
:100C900002E00A2039F052FE574B1B8A012BF8D094
:100CA000554B1B8A002B04D054481AF01DFC062318
:100CB000BB67504802F07CFB82E0BA6E7B6E104648
:100CC0004F491A463FF0E6FB0346002B02D14C4B3E
:100CD000FB6718E0BA6E7B6E10464A491A463FF031
:100CE000D9FB0346002B02D1464BFB670BE0BA6EE3
:100CF0007B6E104644491A463FF0CCFB0346002B5E
:100D000001D1414BFB67FB6F002B57D007F1540318
:100D1000F86F1946102240F007FC0346BB65BB6D17
:100D2000002B4DD0BB6DB3F5803F49DA002387F827
:100D30005030304802F014FB2F4B01221A822E4B08
:100D4000D968BB6D9AB207F1500300930123019358
:100D5000084611464022002302F0EEFC0346BB6722
:100D6000BB6F002B01D00623BB67BB6F002B21D1CB
:100D700002E00A2039F0E2FD1F4B1B8A012BF8D05C
:100D80001D4B1B8A002B02D00623BB6712E0F86FB5
:100D900040F026F8014607F1600207F15C03F86FA6
:100DA000FFF7AEFD3B6E002B04D0FB6D1846FFF73E
:100DB00039FEB8670F4802F0FBFA01E06023BB6719
:100DC000FA6D7B689A4206D07868FFF72BFEB86709
:100DD00001E06023BB6797F87330012B03D1F86EF5
:100DE000796FFFF789FCBB6F18468437BD4690BD0D
:100DF000B8930608EC0BFF1FF4AEFE1FE89306083D
:100E0000C0930608B0930608C893060880B586B05C
:100E100000AF786000237B61134B1B78012B1BD044
:100E2000FFF782FC78617B69002B18D10F480621FF
:100E3000FFF782FB386107F10C03386919460B4A4A
:100E40000623FFF731FE78617B69002B03D1064B47
:100E500001221A7003E002E040F291137B617B698A
:100E600018461837BD4680BDF4AEFE1FB89306087D
:100E700080B584B000AF78600023FB607B68002BF6
:100E800001D00723FB60FB68002B15D10D4B1B78AD
:100E9000002B03D14FF4C873FB6002E0FFF7D4FCD2
:100EA000F860FB68002B07D1064B5B68184639F0E9
:100EB00081F9044B00221A70FB6818461037BD46B2
:100EC00080BD00BFF4AEFE1F80B485B000AF786077
:100ED0000023FB607B68002B02D10723FB6002E04C
:100EE0007B68044A1A60FB6818461437BD465DF8F3
:100EF000047B704700A0FE1F80B487B000AF03469C
:100F0000B9607A60FB7300237B617B68002B02D1A0
:100F100007237B6114E0BB68002B03D17B680122AF
:100F20001A600DE07B681B68002B03D14FF4A87397
:100F30007B6105E0BB6801221A607B6801221A60B0
:100F40007B6918461C37BD465DF8047B704700BFBF
:100F5000B0B483B000AF786039603B68002B2ED00E
:100F60003B68112283F88E203B68182283F88F207B
:100F70003B68012283F88C203B68002283F88D2097
:100F80003B682033114A1D4614460FCC2860696027
:100F9000AA60EB6003CC2861696123782B763B68FB
:100FA00040330B4A1C46134607CB20606160A260A9
:100FB0001A889B78A281A3733B6804225A66002397
:100FC00018460C37BD46B0BC704700BF14940608E5
:100FD00030940608B0B592B000AFF860B9607A609E
:100FE00070237B64184B07F110041D460FCD0FC40E
:100FF0000FCD0FC495E80F0084E80F0000233B6479
:101000001AE03B6C1B0107F148021344383B1A6895
:10101000BB689A420DD107F110023B6C1B011344CF
:101020000433786819460C223FF066FA00237B648B
:1010300005E03B6C01333B643B6C022BE1D97B6CDC
:1010400018464837BD46B0BD4094060880B485B008
:1010500000AFF860B9607A603B600023184614372F
:10106000BD465DF8047B704780B586B000AFF86080
:10107000B9607A603B6000237B6100233B61254BB4
:101080001B78012B02D04FF4C8737B613B6A002BA5
:1010900001D107237B61BB6803F00403002B01D15E
:1010A000B4237B617B69002B10D1B42037F0E8FAC0
:1010B00038613B69002B01D102237B617B69002BE6
:1010C00004D138690021B4223FF014FB7B69002B66
:1010D0000AD1BB6803F002023B691A603B69012236
:1010E0001A713A693B6A1A607B69002B03D13B692C
:1010F0004FF0FF329A603B69002B05D07B69002BD3
:1011000002D0386937F08AFB7B6918461837BD462C
:1011100080BD00BFF4AEFE1F80B584B000AF786024
:10112000144B1B78012B0CD17B68002B07D07B68FC
:101130001B79012B01D1002305E0B02303E0B32389
:1011400001E04FF4C873FB607868FFF7E1FAB8601C
:10115000FB68002B06D1BB68002B03D0B86837F0C2
:101160005DFB01E0B323FB60FB6818461037BD460A
:1011700080BD00BFF4AEFE1F80B485B000AFF86044
:10118000B9607A603B60002318461437BD465DF8AD
:10119000047B704780B58EB000AFF860B9607A60AC
:1011A00000237B6300233B630023FB620023BB62BD
:1011B00000237B620023FB6100233B6200233B6230
:1011C00047E03A6A13465B0013449B001A46FB68EB
:1011D0001A4407F1100307CA83E807003B69032B91
:1011E00011D0032B02D8012B2CD82EE0802B1AD043
:1011F00040F20112934228D0112B23D17B693B632B
:10120000BB69FB6222E0BB691F2B09D83A6A13460F
:101210005B0013449B001A46FB681344BB6215E055
:1012200021237B6312E07B6907F11C0210461946FB
:1012300004223FF061F9FB69002B02D013237B638A
:1012400004E003E0D1237B6300E000BF3B6A01338D
:101250003B623A6ABB689A42B3D33B6B002B02D025
:10126000BB6A002B01D1D0237B637B6B002B0AD19F
:10127000B86A396BFA6AFFF7B3F878627B6A002BB9
:1012800001D131237B637B6B002B08D1BB6A5A6889
:10129000BB6A9B68786A7968FFF706FC78637B6BAA
:1012A00018463837BD4680BD80B588B000AF78603D
:1012B00039604FF0FF33BB610023FB611CE0FA692A
:1012C00013465B0013449B001A467B681A4407F1DF
:1012D0000C0307CA83E80700FB68B3F5807F08D1D9
:1012E0003B6907F118021046194604223FF004F941
:1012F00006E0FB690133FB61FA693B689A42DED381
:10130000BB6918462037BD4680BD00BF80B489B098
:1013100000AFF860B9607A60FB6800221A600023B1
:10132000FB611DE0FA6913465B0013449B001A46FB
:10133000BB681A4407F1100307CA83E807003B693A
:10134000032B0AD1FA6913465B0013449B001A462B
:10135000BB681A44FB681A6006E0FB690133FB6155
:10136000FA697B689A42DDD32437BD465DF8047B79
:10137000704700BF80B58EB000AFF860B9607A608A
:101380003B6000237B6300233B6386E03A6B13469C
:101390005B0013449B001A463B681A4407F1140390
:1013A00007CA83E807007B69B3F5807F71D0B3F586
:1013B000807F04D8012B6CD9032B0BD061E0B3F5EF
:1013C000C07F2CD040F28112934243D0B3F5857F89
:1013D00011D056E0FB691F2B0AD83A6B13465B000D
:1013E00013449B001A463B681A447B681A6051E01C
:1013F00021237B634EE0BA69FB6907F123010846AC
:1014000011461A463FF078F897F82330012B05D0A3
:1014100027481AF069F813237B633BE03AE0254A3A
:1014200007F124031068516803C312891A80BA694E
:10143000FB6907F12401084611461A463FF02AF8D5
:101440000346002B05D01C481AF04EF813237B638B
:1014500020E01FE0BB681A68FB69023B9A420DD985
:10146000BB699A1CFB69023BF86811461A463FF0BB
:1014700043F8FB699A1EBB681A600BE013237B6379
:1014800008E07B690D4819461AF02EF812237B6399
:1014900000E000BF3B6B01333B633A6B3B6C9A420D
:1014A000FFF474AF7B6B18463837BD4680BD00BF74
:1014B0007094060818950608AC940608E09406088F
:1014C00080B5A4B002AFF860B9607A600023C7F8B5
:1014D00084300023BB670023C7F8803064233B615E
:1014E000F868B968FFF7E0FEF867FB6F032B02D0DE
:1014F000FB6F032B16D107F178031846F968BA6819
:10150000FFF704FF07F1140007F1100107F178025B
:10151000BB6800937B680193FB68FFF72BFFC7F85C
:10152000840006E01848F96F19F0DEFFD123C7F8F0
:101530008430D7F88430002B11D1B96F3B6907F1A3
:101540001402084611461A46FEF74AFFC7F8800003
:10155000D7F88030002B02D13123C7F88430D7F878
:101560008430002B0AD1BB6F5A68BB6F9B68D7F8D9
:1015700080007968FFF798FAC7F88400D7F88430BC
:1015800018468837BD4680BD2495060880B586B0CC
:1015900000AFF860B9607A603B60264B1B78012B86
:1015A0000CD1FB68002B07D0FB681B79012B01D104
:1015B000002305E0B02303E0B32301E04FF4C87338
:1015C0007B61BB68002B05D03B68002B02D07B6998
:1015D000002B01D007237B617B69002B07D107F12A
:1015E0001003B86879681A46FFF758F978617B6983
:1015F000002B1AD13B69022B0DD0032B08D0012BF5
:1016000010D1B86879683A68FFF7C4FD78610CE0DA
:1016100013237B6109E0B86879683A68FFF750FFE7
:10162000786102E013237B6100BF7B69184618379D
:10163000BD4680BDF4AEFE1F80B584B000AF7860BB
:1016400039603868FFF7B0FAF860FB681846103761
:10165000BD4680BD80B592B000AFF860B9607A60D9
:101660003B60B24B1B78012B0CD1FB68002B07D0E1
:10167000FB681B79012B01D1002305E0B02303E0B7
:10168000B32301E04FF4C8737B64012387F83F3034
:101690004FF0FF33BB6300233B630023FB62A44A8C
:1016A00007F120031068516803C312891A800023D0
:1016B000FB6100237B617B6C002B05D17B68002BD9
:1016C00002D03B68002B02D107237B6422E007F1A4
:1016D0001C0107F1140207F11803B868FFF74EF96F
:1016E000FB69002B11D0FB69012B0ED0FB69022B8B
:1016F0000BD0F86907F1300107F12C0207F13F0325
:10170000FEF75AFF03467B6404E0FB69002B01D11E
:1017100020237B647B6C002B02D020237B641FE0A2
:10172000FB69013B052B18D801A252F823F000BF3A
:1017300049170208491702084F1702084F170208F5
:10174000551702085517020803237B6308E002239C
:101750007B6305E001237B6302E020237B6400BF01
:101760007B6C002B40F0728100233B6460E13A6C9B
:1017700013465B0013449B001A467B6813441B68A6
:10178000B3F5807F00F09380B3F5807F04D8002B01
:101790000CD0112B41D046E1B3F5C07F00F0CA80D8
:1017A00040F28112934200F0FC803CE13A6C134617
:1017B0005B0013449B001A467B6813445B68002B54
:1017C0000AD13A6C13465B0013449B001A467B68AF
:1017D000134404229A601FE03A6C13465B001344E2
:1017E0009B001A467B6813449B68032B10D93A6C04
:1017F00013465B0013449B001A467B6813445A68E7
:1018000007F134031046194604223EF075FE03E04A
:101810004FF4A8737B6408E107E197F83F30012B90
:101820000DD13A6C13465B0013449B001A467B684B
:1018300013444FF0FF329A6011237B6436E03A6C18
:1018400013465B0013449B001A467B6813445B6895
:10185000002B0AD13A6C13465B0013449B001A46D6
:101860007B681344FA6A9A6020E03A6C13465B0086
:1018700013449B001A467B6813449A68FB6A9A4299
:1018800003D24FF4A8737B6410E03A6C13465B00FC
:1018900013449B001A467B68134459683A6BFB6AF1
:1018A000084611461A463EF027FEBEE0BDE03A6CFF
:1018B00013465B0013449B001A467B6813445B6825
:1018C000002B0AD13A6C13465B0013449B001A4666
:1018D0007B68134404229A6027E03A6C13465B004D
:1018E00013449B001A467B6813449B68032B03D860
:1018F0004FF4A8737B6418E07B6C002B02D00623A6
:101900007B6412E00323BB633A6C13465B00134411
:101910009B001A467B6813445A6807F13803104647
:10192000194604223EF0E8FD7FE07EE0F4AEFE1FA3
:10193000189506083A6C13465B0013449B001A4640
:101940007B6813440A229A603A6C13465B00134486
:101950009B001A467B6813445B68002B20D03A6CCE
:1019600013465B0013449B001A467B6813449B6834
:10197000092B03D84FF4A8737B6411E03A6C13462B
:101980005B0013449B001A467B6813445B681A464D
:1019900007F1200303CB106051601B88138144E0E2
:1019A00043E03A6C13465B0013449B001A467B6885
:1019B00013445B68002B0AD13A6C13465B00134456
:1019C0009B001A467B68134443229A602AE03A6CD3
:1019D00013465B0013449B001A467B6813449A68C5
:1019E000FB6A9A4203D24FF4A8737B641AE03A6C04
:1019F00013465B0013449B001A467B6813445968E6
:101A00003A6BFB6A084611461A463EF075FD3A6C81
:101A100013465B0013449B001A467B681344FA6A22
:101A20009A6002E001E012237B643B6C01333B646B
:101A30003A6C3B689A4203D27B6C002B3FF497AE22
:101A40003A6BFB6A10461946FEF756FE7B6C184649
:101A50004837BD4680BD00BF80B58CB000AFF86090
:101A6000B9607A60F868FEF753FE38624A4B1B781B
:101A7000012B0CD1FB68002B07D0FB681B79012BD5
:101A800001D1002305E0B02303E0B32301E04FF4CC
:101A9000C873FB620023BB623B6A002B03D03B6A26
:101AA0001B79012B05D0B323FB623C4819F01CFDC8
:101AB0001BE03B6A1B69002B05D09023FB62384872
:101AC00019F012FD11E0BB68002B02D10723FB6265
:101AD0000BE07B68012B08D07B68022B05D0072325
:101AE000FB623048796819F0FFFCFB6A002B17D1C4
:101AF000BB689B680133184636F0C2FDB8623B6A8A
:101B0000BA6A1A61BB6A002B08D0BB689B680133B4
:101B1000B86A00211A463EF0EDFD01E00223FB62A7
:101B2000FB6A002B26D1D023FB6200237B621DE0E1
:101B30007A6A13465B0013449B001A46BB681A443A
:101B400007F1140307CA83E807007B69032B0AD156
:101B50003B6A1969BA69FB69084611461A463EF0A4
:101B6000CBFC0023FB627B6A01337B627A6A7B6871
:101B70009A42DDD3FB6A002B08D0BB6A002B05D04C
:101B8000B86A36F04BFE3B6A00221A61FB6A1846BF
:101B90003037BD4680BD00BFF4AEFE1F3C95060841
:101BA0005895060890950608B0B58EB000AFF8605D
:101BB000B9607A603B60744B1B78012B0CD1FB68D9
:101BC000002B07D0FB681B79012B01D1002305E016
:101BD000B02303E0B32301E04FF4C8737B63002319
:101BE0003B63F868FEF794FD786200233B620023B4
:101BF000FB610123FB76002387F82F3000237B61F4
:101C00007B6B002B05D1BB68002B02D03B68002BFF
:101C100003D107237B6301233B637B6A1B69002B92
:101C200003D191237B6301233B637B68002B03D1AA
:101C300007237B6301233B633B6B002B0AD17B6A49
:101C40005B7B012B06D13B6800221A6000237B637B
:101C500001233B633B6B002B40F090807B6A1C6947
:101C60007B6A1B6918463FF0BBF8024607F1140374
:101C7000204611461A46BB68FEF742FEBB681B6849
:101C8000002B0ED17B6A1C697B6A1B6918463FF0EA
:101C9000A7F80346DBB220461946FEF74DFC034683
:101CA0007B617B69002B55D07B69012B52D07B690E
:101CB000022B4FD0786907F1200107F11C0207F1D0
:101CC0001B03FEF779FC03467B637B6B002B0AD179
:101CD000FB69002B07D13B6800221A6000237B635D
:101CE00001233B6335E07B6B002B32D10023BB62C9
:101CF0000BE03A6ABB6A13441A7897F82F30134303
:101D000087F82F30BB6A0133BB62FB69BA6A9A421B
:101D1000EFD3FB69012B03D1BB6800221A6011E0ED
:101D20007D697B6A1C697B6A1B6918463FF058F81D
:101D300003462846B9682246FEF7B6FE78633B683C
:101D400001221A603A6AFB6910461946FEF7D4FC74
:101D500014E013E07B69012B02D07B69022B05D1D3
:101D60003B6801221A6000237B6307E07B6A1B69E2
:101D70000648194619F0B8FB06237B637B6B1846AF
:101D80003837BD46B0BD00BFF4AEFE1FD49506087F
:101D900080B584B000AF7860194B1B78012B0CD153
:101DA0007B68002B07D07B681B79012B01D10023B6
:101DB00005E0B02303E0B32301E04FF4C873FB60F8
:101DC0007868FEF7A5FCB860BB681B79012B01D0D1
:101DD000B323FB60BB681B69002B01D19123FB601F
:101DE000FB68002B07D1BB681B69184636F016FD4F
:101DF000BB6800221A61FB6818461037BD4680BDDB
:101E0000F4AEFE1F80B584B000AF78603960344B0B
:101E10001B78012B0CD17B68002B07D07B681B79CA
:101E2000012B01D1002305E0B02303E0B32301E03F
:101E30004FF4C873FB607868FEF76AFCB860BB6853
:101E4000002B01D1B323FB603B681B68B3F5147F03
:101E500001D07023FB60FB68002B3BD1BB6803F112
:101E60002802BB68C3F8AC20BB688222A3F8B0206C
:101E7000BB68E22283F8B2201A4801F071FA184BCD
:101E800001221A82164B9A68BB68AC331046194679
:101E900001F092FE0346FB60FB68002B01D0062395
:101EA000FB60FB68002B12D102E00A2038F046FDEF
:101EB0000B4B1B8A012BF8D0094B1B8A002B02D03D
:101EC0000623FB6003E03B681A68BB689A6005481C
:101ED00001F06EFAFB6818461037BD4680BD00BFA2
:101EE000F4AEFE1FEC0BFF1F80B588B000AFF860AA
:101EF000B9607A60304B1B78012B0CD1FB68002B4A
:101F000007D0FB681B79012B01D1002305E0B0232A
:101F100003E0B32301E04FF4C873FB61F868FEF7F8
:101F2000F7FBB861BB69002B02D1B323FB6106E06C
:101F3000BB699B68B3F5147F01D09123FB61FB69FA
:101F4000002B34D1BB683B617B687B611B4801F08F
:101F500007FA194B01221A82174B9968BB6903F1E2
:101F6000AC0207F1100308461146012201F076FE8B
:101F70000346FB61FB69002B01D00623FB61FB6973
:101F8000002B11D102E00A2038F0D8FC0A4B1B8A42
:101F9000012BF8D0084B1B8A002B05D00623FB61D0
:101FA000BB694FF0FF329A60044801F001FAFB6907
:101FB00018462037BD4680BDF4AEFE1FEC0BFF1F58
:101FC00080B586B000AFF860B9607A60364B1B7898
:101FD000012B0CD1FB68002B07D0FB681B79012B70
:101FE00001D1002305E0B02303E0B32301E04FF467
:101FF000C8737B61F868FEF78BFB38613B69002B87
:1020000002D1B3237B610AE03B699B68B3F5147F7F
:1020100005D091237B613B694FF0FF329A607B6969
:10202000002B3CD1BB68002B03D17B6820221A60B7
:1020300035E07B681B681F2B03D84FF4A8737B61C6
:102040002DE01A4801F08CF9174B01221A82164B29
:102050009A683B69AC3310461946BA6801F06CFEC9
:1020600003467B617B69002B01D006237B617B6982
:10207000002B0DD102E00A2038F060FC0A4B1B8ACD
:10208000012BF8D0084B1B8A002B01D006237B6163
:10209000064801F08DF93B694FF0FF329A607B6989
:1020A00018461837BD4680BDF4AEFE1FEC0BFF1F6F
:1020B00080B58CB000AFF860B9607A60364B1B78A1
:1020C000012B0CD1FB68002B07D0FB681B79012B7F
:1020D00001D1002305E0B02303E0B32301E04FF476
:1020E000C873FB620023FB610023BB61F868FEF745
:1020F0000FFBB86200237B6200237B61BB68002B6F
:1021000004D1264819F0F0F90723FB62FB6A002B83
:1021100027D107F1200107F11C0207F118037868A5
:10212000FEF72CFC3B6A002B19D0FA6907F1140367
:102130001046194610223FF0F7F978627B6A002BAF
:1021400008D07B6AB3F5803F04DA7B6A9AB2BB6A37
:102150009A8406E01248F96A19F0C6F901E0602392
:10216000FB62FB6A002B12D1BB681B6841F2410283
:10217000934208D0BB681B680A48194619F0B4F9A5
:102180007023FB6203E0BB681A68BB6A1A62FB6AD1
:1021900018463037BD4680BDF4AEFE1F00960608D7
:1021A0002C9606087096060890B59FB002AFF860AE
:1021B000B9607A603B60534B1B78012B0CD1FB68F4
:1021C000002B07D0FB681B79012B01D1002305E010
:1021D000B02303E0B32301E04FF4C873FB66F86853
:1021E000FEF796FA38660023BB6600237B6646231B
:1021F000FB82D7F88030002B01D10723FB66FB6EF2
:10220000002B03D14023BB6620237B66FB6E002B93
:1022100052D13B68002B04D1D7F88030BA6E1A60D7
:102220004AE0D7F880301A68BB6E9A4202D24FF467
:10223000A873FB66FB6E002B05D17A6E7B689A4211
:1022400001D02123FB66FB6E002B35D13B6E9B8CAE
:10225000002B31D02C4801F083F82A4B01221A823E
:10226000284B99687B6EDAB23B6E9C8C07F11803A1
:10227000009307F1160301930846B968234601F05D
:10228000D7FD0346FB66FB6E002B01D00623FB66E1
:10229000FB6E002B0DD102E00A2038F04FFB194BEA
:1022A0001B8A012BF8D0174B1B8A002B01D0062369
:1022B000FB66154801F07CF8FB6E002B09D1FB8A08
:1022C0001A4607F11803184611463A68402305F0EC
:1022D000A1FFFB6E002B03D0FB6EB3F5A87F03D1EB
:1022E000D7F8803040221A60FB6EB3F5A87F03D088
:1022F0003B6E4FF0FF321A62FB6E18467437BD46D4
:1023000090BD00BFF4AEFE1FEC0BFF1F80B58CB07C
:1023100000AFF860B9607A600023FB6200233B6283
:102320000023FB610023BB610023BB6200237B61B0
:10233000F868FEF7EDF97862BB68002B01D107233E
:10234000FB62FB6A002B27D107F1200107F11C0279
:1023500007F118037868FEF711FB3B6A002B19D0D0
:10236000FA6907F114031046194610223FF0DCF811
:10237000B862BB6A002B08D0BB6AB3F5803F04DAB1
:10238000BB6A9AB27B6A9A8306E00C48F96A19F034
:10239000ABF801E06023FB62BB681B6841F24102BD
:1023A000934204D1BB681A687B6A9A6101E070238A
:1023B000FB62FB6A18463037BD4680BD2C96060886
:1023C00090B5BBB004AFF860B9607A603B600023A1
:1023D000C7F8D4304623C7F88430F868FEF798F978
:1023E000C7F8D000BB68002B02D03B68002B02D19D
:1023F0000723C7F8D430D7F8D430002B17D1D7F83B
:10240000D0309B6941F2410293420DD17B68202B71
:1024100002D02123C7F8D430D7F8E830402B06D0BB
:10242000C123C7F8D43002E09123C7F8D430D7F8DD
:10243000D430002B40F0B5803B6803F1200207F157
:10244000880407F18403009338681146202223464C
:1024500005F0E2FD034683F00103DBB2002B05D05B
:10246000C023C7F8D430524819F03EF8D7F8D4301A
:10247000002B40F096806423A7F882304D4800F08E
:102480006FFF4D4B01221A824B4BD968D7F8D030E1
:102490009A8B07F11403DC1C07F1820300930846B2
:1024A00011460222234601F0E5F80346C7F8D4306E
:1024B000D7F8D430002B05D0404819F015F8C023C8
:1024C000C7F8D430D7F8D430002B11D102E00A205D
:1024D00038F034FA384B1B8A012BF8D0364B1B8A64
:1024E000002B05D0354818F0FFFFC023C7F8D430C3
:1024F000304800F05DFF03233B7542237B750023CA
:10250000BB75B7F8823003339BB2A7F8823007F16E
:102510001403BB67B7F88230A7F87C30032387F831
:102520007E30244800F01CFF234B01221A82224BEC
:1025300099687B68DAB2D7F884309BB207F18804D7
:1025400000930123019307F1780302930846B968C9
:10255000234601F08DFC0346C7F8D430D7F8D430B9
:10256000002B05D0164818F0BFFFC023C7F8D430A1
:10257000D7F8D430002B11D102E00A2038F0DEF970
:102580000D4B1B8A012BF8D00B4B1B8A002B05D05F
:102590000B4818F0A9FFC023C7F8D430054800F055
:1025A00007FFD7F8D4301846DC37BD4690BD00BFD2
:1025B00098960608EC0BFF1FF4AEFE1FB8960608AF
:1025C000E896060880B58EB000AFF860B9607A6012
:1025D00000237B630023FB620723BB6200233B6372
:1025E00071E03A6B13465B0013449B001A46BB68CC
:1025F0001A4407F11C0307CA83E80700FB69032B91
:102600000DD0032B04D8012B18D0022B35D054E069
:10261000B3F5807F1FD0B3F5847F3ED04DE03A6B99
:1026200013465B0013449B001A46BB681A44FB68C0
:102630001A60FB6A43F00103FB6241E03B6A1B78CE
:10264000FB76FB7E012B05D0274818F04DFF1323A6
:102650007B6335E034E03B6A07F11402104619460B
:1026600004223DF049FF7B69032B05D01F4818F079
:102670003BFFD1237B6323E022E03B6A1B78FB76A0
:10268000FB7E012B04D01A4818F02EFFD1237B6368
:10269000FB6A43F00203FB6212E03B6A1B78FB76A5
:1026A000FB7E012B04D0134818F01EFFD1237B635F
:1026B000FB6A43F00403FB6202E0D1237B6300BFAB
:1026C0003B6B01333B633A6B7B689A4289D3FA6A6E
:1026D000BB6A1A40BB6A9A4201D0D0237B637B6BF2
:1026E00018463837BD4680BD0C9706084097060847
:1026F00074970608C497060880B592B000AFF860DA
:10270000B9607A6000237B644F4A07F114031068B4
:10271000516803C312891A800023FB630723BB633C
:1027200000233B647DE03A6C13465B0013449B003E
:102730001A46BB681A4407F1280307CA83E8070052
:10274000BB6AB3F5807F1DD0B3F5807F04D8012B21
:1027500052D0032B07D05EE0B3F5857F3AD0B3F5B6
:10276000C07F21D057E03A6C13465B0013449B00B6
:102770001A46BB681A44FB681A60FB6B43F00103FE
:10278000FB634BE0FB6A07F1200210461946042266
:102790003DF0B2FE3B6A032B05D02C4818F0A4FE96
:1027A000D1237B643AE039E0FB6A07F1140210465A
:1027B00019460A223DF06EFE78637B6B002B04D035
:1027C000234818F091FED1237B64FB6B43F0020396
:1027D000FB6323E0FB6A1B7887F8273097F82730E4
:1027E000012B04D01B4818F07FFED1237B64FB6BC8
:1027F00043F00403FB6311E0FB6A1B7887F8273082
:1028000097F82730012B05D0134818F06DFE1323DD
:102810007B6403E002E0D1237B6400BF3B6C0133A7
:102820003B643A6C7B689A42FFF47DAFFA6BBB6BFA
:102830001A40BB6B9A4201D0D0237B647B6C184654
:102840004837BD4680BD00BF18950608409706086A
:102850000C980608409806080C97060890B595B0A5
:1028600004AFF860B9607A603B607F4B1B78012B46
:102870000CD1FB68002B07D0FB681B79012B01D121
:10288000002305E0B02303E0B32301E04FF4C87355
:10289000FB630023BB630023FB850023BB62002393
:1028A0007B6200237B6300233B6300233B620023A6
:1028B000FB616E4A07F1180312881A806C4A07F10F
:1028C00014031188927819809A70BB681B68B3F55D
:1028D000825F01D07123FB63FB6B002B07D107F1F3
:1028E00028031846396D7A6DFFF76CFEF863FB6BB1
:1028F000002B07D107F12403184679683A68FFF7DF
:10290000FBFEF863FB6B002B0BD14423FB85FB8D97
:10291000184635F0B5FEB863BB6B002B01D102231E
:10292000FB63FB6B002B4BD1BB6A5A6807F120039A
:102930001046194610223EF0F7FD0346FB61FB6985
:10294000002B3BD0FB69B3F5803F37DA494800F0F4
:1029500007FD454B01221A82434B9A6807F11C037D
:102960000093BB6B019307F12E03029310460321E2
:102970001022002301F03CFA0346FB63FB6B002BA3
:1029800004D03D4818F0B0FDC023FB63FB6B002B67
:1029900010D102E00A2037F0D1FF334B1B8A012B04
:1029A000F8D0314B1B8A002B04D0334818F09CFD23
:1029B0000623FB632F4800F0FBFC01E00623FB63CA
:1029C000FB6B002B13D1BB6B01331A4607F11803C5
:1029D0001B8813807A6ABB6B0133F98D01390C4671
:1029E000104619462246FDF7FBFC786301E00523FB
:1029F000FB63FB6B002B07D1BB6A1846002100224A
:102A0000FDF7EEFC386301E00523FB637B6B002BD5
:102A10001FD0BB6A5A68BB6A9B68386BF96DFEF7BA
:102A200043F8F863FB6B002B13D1FB6B002B10D129
:102A30007B6A5A687B6A9B68786BB96DFEF734F8DD
:102A4000F863FB6B002B04D0FB6D1B681846FEF788
:102A5000ABF8BB6B002B02D0B86B35F0DFFEFB6B25
:102A600018464437BD4690BDF4AEFE1FB098060828
:102A7000B4980608EC0BFF1F8898060880B58AB04A
:102A800000AFF860B9607A6000237B627B683B62CC
:102A9000BB68FB61344B1B78012B0CD1FB68002B0E
:102AA00007D0FB681B79012B01D1002305E0B0237F
:102AB00003E0B32301E04FF4C8737B627B6A002B11
:102AC0004CD1BB68002B02D07B68002B02D10723BE
:102AD0007B6243E03B6A072B04D807F11403FB61D8
:102AE00008233B62214800F03BFC1F4B01221A8265
:102AF0001D4B9A683B6A9BB210460021FA6901F0AF
:102B00002DF803467B627B6A002B04D0184818F02E
:102B1000EBFCC0237B627B6A002B10D102E00A2011
:102B200037F00CFF104B1B8A012BF8D00E4B1B8A81
:102B3000002B04D00E4818F0D7FC06237B620B480C
:102B400000F036FC07F11403FA699A4206D107F146
:102B50001403B86819467A683DF0CEFC7B6A1846C3
:102B60002837BD4680BD00BFF4AEFE1FEC0BFF1F33
:102B7000B898060880B400AF00231846BD465DF83B
:102B8000047B704780B483B000AF78600B46FB7065
:102B9000FB7801229A407B685A600C37BD465DF88D
:102BA000047B704780B483B000AF78600B46FB7045
:102BB000FB784FF480329A407B685A600C37BD46F0
:102BC0005DF8047B704700BF80B584B000AF7860CB
:102BD0000023FB607B68002B2BD07B681B68002BDD
:102BE00027D07B681B68FB60FB681B78002B18D123
:102BF000FB685968FB681A7DFB6808330846114674
:102C00001A460CF0E9FBFB685968FB681A7DFB6803
:102C10005B7D084611461A460DF060FEFB680122F6
:102C20001A70FB685A68FB681B7D10461946FFF74F
:102C3000A9FF1037BD4680BD80B584B000AF786075
:102C40000023FB607B68002B2BD07B681B68002B6C
:102C500027D07B681B68FB60FB681B78002B18D1B2
:102C6000FB685968FB681A7DFB6808330846114603
:102C70001A460CF0B1FBFB685968FB681A7DFB68CB
:102C80005B7D084611461A460DF028FEFB680122BE
:102C90001A70FB685A68FB681B7D10461946FFF7DF
:102CA00081FF1037BD4680BD80B483B000AF78602F
:102CB0007B689B6893F82630DBB218460C37BD461C
:102CC0005DF8047B704700BF80B483B000AF7860CC
:102CD0007B689B6893F82730DBB218460C37BD46FB
:102CE0005DF8047B704700BF80B584B000AF7860AA
:102CF0000023FB60094B1A6807F10C031046002102
:102D00001A4637F0BBF90346012B01D1002300E03E
:102D1000012318461037BD4680BD00BFF40BFF1FCE
:102D200080B584B000AF78600023FB60054B1A6863
:102D300007F10C031046194636F02CFF1037BD463C
:102D400080BD00BFF40BFF1F80B584B000AF78607A
:102D50000B467B807B68DB68FB607B6899687A88C0
:102D6000FB680846114698477B689B681846FFF742
:102D7000D7FF1037BD4680BD80B584B000AF0023BB
:102D80007B60094B1B68BB600023BB81074B196844
:102D900007F108023B1D084611461A46002336F08B
:102DA00061FE1037BD4680BDFCAFFE1FF00BFF1F5C
:102DB00080B584B000AF00237B60094B1B68BB600B
:102DC0000023BB81074B196807F108023B1D084629
:102DD00011461A46002336F045FE1037BD4680BD29
:102DE000FCAFFE1FF00BFF1F80B584B000AF0023C7
:102DF0003B601B4B1B681B68FB60F868FFF754FFC8
:102E00000346002B09D0F8680FF060FB00BFF8689C
:102E1000FFF74AFF0346002BF9D1F868FFF754FF8C
:102E20000346002B09D0F8680FF07AFB00BFF86862
:102E3000FFF74AFF0346002BF9D1094B1B687B6063
:102E400001233B81074B19683A1D3B460846114652
:102E50001A46002336F006FE1037BD4680BD00BF7F
:102E6000FCAFFE1FF00BFF1F80B584B000AF786091
:102E7000094B1A6807F10803104619464FF0FF3254
:102E800036F012FF0346002B05D0BA68BB89104606
:102E90001946FFF759FFEBE7F00BFF1F80B586B02F
:102EA00002AF78600123FB81194B1B68002B28D1EE
:102EB00001200021032236F08DFB0246154B1A60DB
:102EC00015480EF053FC0346FB81FB89002B01D112
:102ED0000023FB81002300930D4B01930F48104901
:102EE0004FF48072002337F03DFB022008210022BE
:102EF00036F070FB02460B4B1A607868FFF710FF44
:102F000001E00023FB81FB8918461037BD4680BDD8
:102F100000B0FE1FF40BFF1FB0A5FE1F692E0208B4
:102F2000E4980608F00BFF1F80B582B000AF786010
:102F30000A4B1B68002B04D0084B1B68184637F05F
:102F40006FFC7868FFF7D0FE054B1B68184637F01A
:102F500031F9002318460837BD4680BD00B0FE1F7A
:102F6000F40BFF1F90B589B002AFF860B96013464B
:102F7000FB800123FB82F868FFF7B6FE0346002BB7
:102F800024D11A4AFB681360FB681A68FB681B7936
:102F90005B001C46FB88009301230193104601212E
:102FA0002246BB680EF018FC0346002B0BD0FB68D2
:102FB000DB681A46FB689B68184601219047F86851
:102FC000FFF7AEFE0CE00023FB8209E00223FB8248
:102FD000FB68DB681A46FB689B681846022190472D
:102FE000FB8A18461C37BD4690BD00BFFCAFFE1FD4
:102FF00090B58BB004AFF860B9601346FB80012335
:10300000FB82F868FFF770FE0346002B26D11B4AAF
:10301000FB681360FB681A68FB681B795B001C4641
:10302000FB880093012301930123029310460121A1
:103030002246BB680EF050FD0346002B0BD0FB6808
:10304000DB681A46FB689B68184601219047F868C0
:10305000FFF766FE0CE00023FB8209E00223FB82FF
:10306000FB68DB681A46FB689B681846022190479C
:10307000FB8A18461C37BD4690BD00BFFCAFFE1F43
:1030800080B584B000AF78600B467B800123FB8164
:103090000123BB817868FFF727FE0346002B1DD173
:1030A0007B88B3F5C87F02D94FF4C8737B807B68F7
:1030B0001B6819687B884FF47A7202FB03F3084699
:1030C00019460DF095FC0346002B02D00123FB812D
:1030D00008E00023FB810023BB8103E00223FB8186
:1030E0000223BB817B68DB68002B08D07B68DB6830
:1030F0001A467B689968BB890846194690477868E4
:10310000FFF70EFEFB8918461037BD4680BD00BF95
:1031100080B584B000AF03463960FB801346BB80A6
:103120000123FB81FB88222B11D0332B18D0112BCC
:1031300000D01EE0BB88402B08D8BB880F483968F8
:103140001A463DF0D9F90023FB8112E011E0BB885B
:103150000B4839681A463DF0CFF90023FB8108E09F
:10316000BB88084839681A463DF0C6F90023FB8140
:1031700000BFFB8918461037BD4680BD08B0FE1F52
:10318000F80BFF1F3C0CFF1FF0B587B000AF0346E4
:10319000B9607A60FB810123FB82FB89222B21D05D
:1031A000332B29D0112B00D030E07B681B883F2BBC
:1031B00017D9BB68184A14469E4604F1400C754660
:1031C00026460FCE28606960AA60EB6010340EF1CD
:1031D000100E6445F3D17B6840221A800023FB82E5
:1031E00014E013E07B681B88B8680C491A463DF070
:1031F00083F90023FB8209E07B681B88B8680849D3
:103200001A463DF079F90023FB8200BFFB8A18467D
:103210001C37BD46F0BD00BF08B0FE1FF80BFF1FF6
:103220003C0CFF1F80B584B000AFF860B9607A60D5
:10323000FB681B78002B09D1FB6801221A70F86823
:10324000B9687A684FF47A7300F04CF81037BD46CD
:1032500080BD00BF80B483B000AF78607B6800227F
:103260001A700C37BD465DF8047B704780B582B09C
:1032700000AF786039607B68002B07D03B68002B7B
:1032800004D0054879683A68FFF7CCFF024B18462E
:103290000837BD4680BD00BF48B0FE1F80B582B074
:1032A00000AF0E4B1B68002B15D037F08BFC02468D
:1032B0000A4B1B689A420ED9094B5B68002B0AD057
:1032C000064B00221A60064B5B687B60044B9A68D1
:1032D0007B68104698470837BD4680BD58B0FE1F32
:1032E00048B0FE1F80B584B000AFF860B9607A6066
:1032F0003B600E4ABB6853600C4A7B68936037F0B2
:1033000061FC01463B680A4AA2FB03239B094FF478
:103310007A7202FB03F3064AA2FB03239B090B44C8
:10332000044A13601037BD4680BD00BF48B0FE1F81
:10333000D34D621058B0FE1F80B582B000AF7860E8
:1033400001200021032236F045F90246034B1A60A2
:10335000786800F02DF80837BD4680BD440CFF1F8B
:1033600080B582B000AF786035F0ACFC0E4B1B78B6
:10337000DBB2002B05D07868FFF7DEFF0A4B002296
:103380001A7035F0CDFC094B1B6818464FF0FF3121
:1033900036F06AFD0346012B01D1002300E0012332
:1033A00018460837BD4680BD28A1FE1F440CFF1FEC
:1033B00080B582B000AF7860054B1B6818460021CD
:1033C0000022002336F050FA0837BD4680BD00BF0A
:1033D000440CFF1F80B500AF35F074FC80BD00BF0A
:1033E00080B500AF35F09CFC80BD00BF80B400AF5D
:1033F000044B1B685A1C03490A601846BD465DF819
:10340000047B70475CB0FE1F80B500AF37F0DAFB7D
:103410000346184680BD00BF80B584B000AF0346A8
:10342000FB80FB88FB60F86837F088FA1037BD46F0
:1034300080BD00BF80B584B000AF78600B467B8054
:103440007B68FB60FB68DB69FA6891697A880846EB
:1034500011469847FB6800221A841037BD4680BD8C
:1034600080B483B000AF78600C37BD465DF8047B54
:10347000704700BF80B586B000AFF86008461146BF
:103480001A4603467B810B467B721346FB8040F253
:103490000233FB82FB68002B06D0FB685B69002BC4
:1034A00002D03B6A002B03D140F20333FB8245E09C
:1034B000FB681B8C012B03D140F20533FB823DE0FE
:1034C000FB6801221A84FB683B61FB6818460021F7
:1034D00014223DF00FF97B7A022B07D13B6A1A7850
:1034E0003B699A733B6900229A6005E03B690022C0
:1034F0009A733B693A6A9A603B697A891A803B6998
:10350000FA885A803B6900221A733B69BA8C9A8008
:103510003B690022DA803B697A7A5A73FB685A6900
:103520007B7A104619463A6903F0F4FD0346FB82A4
:10353000FB8A002B02D0FB6800221A84F868FFF790
:103540008FFFFB8A18461837BD4680BD80B586B010
:1035500000AF0346B9607A60FB7300237B61BB68F0
:10356000002B00D124E0012024213CF0EBF903469C
:103570007B617B69002B00D11AE07B69BA68DA6154
:103580007B697A689A617B6900221A84FB7B184602
:103590000A497A6903F0E6F902467B695A617B6958
:1035A0005B69002B04D178693CF0DEFC00237B6171
:1035B0007B6918461837BD4680BD00BF3534020808
:1035C00080B584B000AF78607B68002B03D140F2F7
:1035D0000333FB8111E07B681B8C012B03D140F28C
:1035E0000533FB8109E07B685B69184603F028FA24
:1035F0000346FB8178683CF0B7FCFB89184610371E
:10360000BD4680BD80B584B000AF78600B46FB70CE
:1036100040F20233FB817B68002B03D07B685B693F
:10362000002B03D140F20333FB811AE07B681B8C33
:10363000012B03D140F20533FB8112E07B680122AC
:103640001A847B685A69FB7810461946002203F0F9
:1036500077FB0346FB81FB89002B02D07B680022AD
:103660001A847868FFF7FCFEFB8918461037BD46C0
:1036700080BD00BF80B586B000AFF8607B600B46B0
:103680007B8113463B8140F20233FB82FB68002BB7
:1036900009D0FB685B69002B05D07B68002B02D04A
:1036A0003B6A002B03D140F20333FB823CE0FB6812
:1036B0001B8C012B03D140F20533FB8234E0FB6805
:1036C00001221A84FB683B61FB6818460021142222
:1036D0003DF010F83B697A891A803B693A895A8033
:1036E0003B6900229A723B697A681A613B6A1A88C0
:1036F0003B699A803B693A6ADA603B690022DA806A
:103700003B6900221A81FB685A693B699B7A104623
:1037100019463A6903F034FC0346FB82FB8A002B0E
:1037200002D0FB6800221A84F868FFF799FEFB8A32
:1037300018461837BD4680BD90B589B002AFF86015
:10374000084611461A4603467B810B467B72134698
:10375000FB8040F20333FB827B7A002B03D07B7A21
:10376000402B00D00CE079897A7AFC88BB6A009300
:10377000BB8D0193F8682346FFF77CFE0346FB826E
:10378000FB8A18461C37BD4690BD00BF80B584B08B
:1037900000AF78600B467B807B68FB60FB689B6AB0
:1037A000FA68516A7A88084611469847FB680022F1
:1037B0009A851037BD4680BD80B483B000AF786075
:1037C0000C37BD465DF8047B704700BF80B584B000
:1037D00000AF7860084611461A460346FB700B4658
:1037E000BB7013467B7040F20243FB817B68002B69
:1037F0000CD07B681B6A002B08D0FB69002B05D01E
:10380000BB69002B02D03B6A002B03D140F203437B
:10381000FB8136E07B689B8D012B03D140F2054391
:10382000FB812EE07B6801229A857B68BB607B6808
:103830001846002120223CF05DFFBB68BA781A7060
:10384000BB687A785A70BB683A6A1A617B78002B39
:1038500003D0BB68BA695A6003E0BB691A88BB68C9
:103860005A80BB68FA69DA60BB683A6A1A617B6899
:103870001A6AFB7810461946BA6804F083F90346C1
:10388000FB817868FFF798FFFB8918461037BD4623
:1038900080BD00BF80B586B000AFF8607A601A4680
:1038A0000B46FB721346BB7240F20243FB82FB687D
:1038B000002B0CD0FB681B6A002B08D07B68002B08
:1038C00005D07B6A002B02D0BB6A002B03D140F2EB
:1038D0000343FB8231E0FB689B8D012B03D140F257
:1038E0000543FB8229E0FB6801229A85FB683B6166
:1038F000FB681846002120223CF0FCFE3B697A68F8
:103900001A603B69BA7A9A733B693A8C9A813B692F
:103910007A6A5A603B69BA6A9A60FB681A6AFB7AEB
:10392000104619463A6903F0A7FD0346FB82FB8A5D
:10393000002B02D0FB6800229A85F868FFF73CFF55
:10394000FB8A18461837BD4680BD00BF80B586B0DB
:1039500000AFF8607A601A460B46FB721346BB72E2
:1039600040F20243FB82FB68002B0CD0FB681B6A11
:10397000002B08D07B68002B05D03B6A002B02D0BF
:10398000FB6A002B03D140F20343FB823EE0FB685D
:103990009B8D012B03D140F20543FB8236E0FB688F
:1039A00001229A85FB683B61FB68184600212022B2
:1039B0003CF0A0FE3B697A681A603B69BA7A1A71DA
:1039C0003B693A6A9A603B69BA8C9A813B6997F87D
:1039D00028209A7397F82830002B04D1FB6A1A88A4
:1039E0003B699A8202E03B69FA6A1A61FB681A6ACB
:1039F000FB7A104619463A6903F068FE0346FB82DB
:103A0000FB8A002B02D0FB6800229A85F868FFF73A
:103A1000D3FEFB8A18461837BD4680BD80B586B0F8
:103A200000AFF8607A601A460B46FB7213463B8182
:103A300040F20243FB82FB689B8D012B03D140F2D5
:103A40000543FB8226E0FB6801229A85FB683B6107
:103A5000FB681846002120223CF04CFE3B693A6A84
:103A60009A603B69BA8C5A803B697A685A603B69B4
:103A70003A891A80FB681A6AFB7A104619463A6935
:103A800003F018FC0346FB82FB8A002B02D0FB6884
:103A900000229A85F868FFF78FFEFB8A18461837D0
:103AA000BD4680BD80B586B000AF0346B9607A6080
:103AB000FB7300237B61BB68002B00D124E0012055
:103AC00030213BF03FFF03467B617B69002B00D137
:103AD0001AE07B69BA689A627B697A685A627B6984
:103AE00000229A85FB7B18460A497A6902F03AFF60
:103AF00002467B691A627B691B6A002B04D17869D4
:103B00003CF032FA00237B617B6918461837BD46CA
:103B100080BD00BF8D37020880B584B000AF7860EB
:103B20007B68002B03D140F20343FB8111E07B68EB
:103B30009B8D012B03D140F20543FB8109E07B689B
:103B40001B6A184602F07CFF0346FB8178683CF054
:103B50000BFAFB8918461037BD4680BD90B589B079
:103B600002AFF8607A601A460B46FB7213463B813F
:103B700040F20243FB82FB68002B06D0FB681B6A05
:103B8000002B02D07B68002B03D140F20343FB8261
:103B90000DE0FA7A3C890023009300230193F86832
:103BA00011467A682346FFF739FF0346FB82FB8AFA
:103BB00018461C37BD4690BD80B584B000AF786014
:103BC000396040F20243FB817B68002B06D07B68A2
:103BD0001B6A002B02D03B68002B03D140F2034349
:103BE000FB8132E07B689B8D012B03D140F20543C2
:103BF000FB812AE07B6801229A857B68BB607B6839
:103C00001846002120223CF075FDBB6800221A7383
:103C1000BB683A689A60BB680022DA61BB68002220
:103C20005A60BB6800221A607B681A6A3B689B79FD
:103C300010461946BA6804F069F90346FB81FB890E
:103C4000002B02D07B6800229A857868FFF7B4FDCC
:103C5000FB8918461037BD4680BD00BF80B586B0D1
:103C600000AFF860B9603B601346FB7140F202435D
:103C7000FB82FB68002B09D0FB681B6A002B05D078
:103C8000BB68002B02D03B68002B03D140F20343FA
:103C9000FB8249E0FB689B8D012B03D140F2054379
:103CA000FB8241E0FB6801229A85FB683B61FB686F
:103CB0001846002120223CF01DFD3B69FA795A7319
:103CC0003B6902221A733B69BA689A603B699B6838
:103CD0009B881A463B69DA613B6900225A603B695E
:103CE00000221A60FB79002B03D03B693A685A60C6
:103CF00009E03B691B7B43F01003DAB23B691A739E
:103D00003B693A681A60FB681A6ABB689B7910467F
:103D100019463A6904F0FAF80346FB82FB8A002B45
:103D200002D0FB6800229A85F868FFF745FDFB8A00
:103D300018461837BD4680BD80B586B000AFF86024
:103D4000B9607A6040F20243FB82FB68002B09D025
:103D5000FB681B6A002B05D0BB68002B02D07B6878
:103D6000002B03D140F20343FB8238E0FB689B8DBC
:103D7000012B03D140F20543FB8230E0FB680122B6
:103D80009A85FB683B61FB681846002120223CF0C5
:103D9000B1FC3B697A685A613B6903221A733B693B
:103DA000BA689A603B699B689B881A463B69DA61EE
:103DB0003B6900225A603B6900221A60FB681A6A5C
:103DC000BB689B79104619463A6904F09FF8034690
:103DD000FB82FB8A002B02D0FB6800229A85F868E0
:103DE000FFF7EAFCFB8A18461837BD4680BD00BFC6
:103DF00090B587B004AF7860084611461A4603466E
:103E0000FB700B46BB7013467B70F978BA787C78F0
:103E1000BB690093FB6901933B6A02937868234670
:103E2000FFF7D4FC034618460C37BD4690BD00BFD3
:103E300090B589B004AFF860B96011461A460B46D8
:103E4000FB711346BB80FC79BB8800933B6A0193EE
:103E50007B6A029300230393F8681121BA68234612
:103E6000FFF718FD034618461437BD4690BD00BF46
:103E700090B58BB006AFF860B9603B601346FB713C
:103E8000FC793B6800933B8C019397F824300293B4
:103E9000BB6A039300230493F8681121BA68234690
:103EA000FFF754FD034618461437BD4690BD00BFCA
:103EB00080B586B000AFF8607A601A460B467B8109
:103EC00013467B7240F20243FB82FB68002B10D04A
:103ED000FB681B6A002B0CD07B68002B09D07B6829
:103EE0001B68002B05D07B7A012B06D13B6A002B87
:103EF00003D140F20343FB822DE0FB689B8D012B35
:103F000003D140F20543FB8225E0FB6801229A853C
:103F1000FB683B61FB681846002120223CF0EAFB6D
:103F20003B697A891A813B697A681A603B697A7AB7
:103F30009A723B693A6A5A60FB681B6A184601210B
:103F40003A6903F0CBFC0346FB82FB8A002B02D0CC
:103F5000FB6800229A85F868FFF72EFCFB8A18465A
:103F60001837BD4680BD00BF80B584B000AF786013
:103F70004FF48173FB817B6893F82530032B25D0A8
:103F80007B681B697A689A607B68002283F82A2024
:103F90007B6893F82A30022B00D917E07B68B122A6
:103FA00083F826207B68012283F82B207B6801227E
:103FB00083F82420786800F0ABF80346FB81FB8986
:103FC000002B03D17B68032283F82520FB89184648
:103FD0001037BD4680BD00BF80B588B002AFF86025
:103FE000B9603B601346FB804FF48173FB82FB6832
:103FF00093F82430022B26D1FB6893F82530032B4D
:1040000021D0FB683A68DA61FB683A6A1A62FA887A
:104010003B6A0093F868B9683B6801F013FA0346FD
:10402000FB82FB8A002B03D1FB68032283F8252047
:10403000FB8A002B07D1FB681B8D002B03D1FB688B
:10404000032283F82520FB8A18461837BD4680BD19
:1040500080B584B000AF78604FF48173FB817B68DA
:1040600093F82530032B1ED00023FB8178680021B4
:104070000022002300F01CF87B681B691846FEF73D
:1040800053FF7B689B681846FEF7D6FD7B68DB68AC
:104090001846FEF7D1FD7B68012283F824207B6857
:1040A000042283F82520FB8918461037BD4680BDC1
:1040B00080B584B000AFF8607A601A460B467B8109
:1040C00013463B81FB685B69002B07D0FB685B698B
:1040D000FA6891697A89084611469847FB687A8997
:1040E0001A85FB68042283F82520FB6893F82430A6
:1040F000012B00D008E07B89002B04D1FB68022251
:1041000083F82420FFE700BF1037BD4680BD00BF05
:1041100080B584B000AF78604FF48173FB817B6819
:1041200093F82A30022B04D07B6893F82A30002BB6
:1041300051D17B6893F82630B22B24D0B32B42D0D8
:10414000B12B00D046E07B6893F82A30002B04D1D5
:104150007B689B681846FEF76FFD7B68DB68184636
:10416000FEF76AFD7B68B22283F826207B68D3F8CD
:10417000D43318461F497A684FF4FA63FFF7B2F850
:104180000023FB8126E07B6893F82A30002B04D1C2
:104190007B689B681846FEF717FD7B68DB6818464E
:1041A000FEF712FD7B68B32283F826207B68D3F8E4
:1041B000D43318460F497A6842F6E063FFF792F865
:1041C0000023FB8106E078680B4901F00FF90346F4
:1041D000FB8100BF09E07B68012283F8A521786894
:1041E000054901F003F90346FB81FB8918461037A6
:1041F000BD4680BD11410208B140020880B582B0C1
:1042000000AF786039607B68002283F858207868B6
:10421000174900F027FC0346002B02D04FF48173AE
:1042200021E07B683A685A677B68012283F858204E
:104230007B68032283F859207B68032283F85A2085
:104240007B68002283F85E207B68002283F85D2073
:104250007B6803F5D4727B689A667B6803F2BE22A2
:104260007B68DA66002318460837BD4680BD00BF6C
:104270001146020880B582B000AF78600B467B80A3
:104280007B6893F85830012B02D17B88002B02D138
:104290004FF481731AE07B68022283F858207B6810
:1042A000002283F85C207B68002283F85B207B6817
:1042B0007A88A3F864207B680A221A667B8878686B
:1042C00019460022002300F089F8034618460837F3
:1042D000BD4680BD80B582B000AF78607B6893F842
:1042E0005830012B02D04FF4817317E07B68032212
:1042F00083F858207B68002283F85C207B680122C9
:1043000083F85B20FFF780F802467B681A677B68BA
:10431000044A1A66786800F01BFC03461846083702
:10432000BD4680BD20BF020080B485B000AF03460B
:104330000A46FB8013467B717B799AB2FB88534017
:104340009BB2DBB2FB81FB8903F00F03BB81BB890E
:104350001B019AB2FB8953407B817B891B093B81FE
:104360007B895B009AB23B8953409BB21B019AB296
:10437000BB8953409BB2DB009AB23B8953409AB24F
:10438000FB881B0A9BB253409BB218461437BD46AC
:104390005DF8047B704700BF80B584B000AF7860E3
:1043A0000B467B800023BB810023FB810DE0FB8952
:1043B0007A6813441B78BA8910461946FFF7B4FF90
:1043C0000346BB81FB890133FB81FA897B889A42D2
:1043D000EDD3BB8918461037BD4680BD80B586B089
:1043E00000AF7860084611461A4603467B800B46AC
:1043F0007B7013463B707B6893F85A30FB827B7866
:10440000012B08D17B6893F85A309BB201339BB2E1
:1044100003F00303FB827B689B6E3B617B78022B7E
:1044200004D10023FB827B68DB6E3B617B78002B31
:1044300007D17B6893F85830092B02D17B68DB6E7B
:104440003B61FB8ADAB23B691A703B691A787B7868
:104450005B01DBB21343DAB23B691A707B88002B35
:1044600022D03B78002B04D07B6893F85E30002B81
:104470000AD07B6893F859300133DBB203F00303B1
:10448000DAB27B6883F859203B691A787B6893F825
:1044900059309B00DBB21343DAB23B691A707B6878
:1044A000002283F85E2006E03B691B7863F07F03FF
:1044B000DAB23B691A703B6901337A88120A92B208
:1044C000D2B21A703B6902337A88D2B21A707B88F2
:1044D00003339BB238691946FFF75EFF0346FB8141
:1044E0007B8803331A463B691344FA89120A92B255
:1044F000D2B21A707B8804331A463B691344FA8996
:10450000D2B21A707B8805339BB2786839691A4633
:1045100000F0F4FA034618461837BD4680BD00BFC8
:1045200080B584B000AF78600023FB817B680322F4
:1045300083F859207B68032283F85A207B68012284
:1045400083F85E207B68052283F858207868002174
:1045500002220023FFF742FF0346FB81FB89184636
:104560001037BD4680BD00BF80B586B000AF786013
:104570000B46FB70FEF748FFF8607B685B6CFA68DF
:10458000D31A3B617B685A6CFB689A4204D97B68FA
:104590005B6CFA68D31A3B613B691C4A93422ED884
:1045A0007B6893F85C30032B09D17B68002283F889
:1045B0005C207868FFF7B4FF0346FB8217E07B6856
:1045C00093F85C300133DAB27B6883F85C207B6857
:1045D000022283F858207B68B3F86420FB7878685F
:1045E00011461A460123FFF7F9FE0346FB82FB8AB8
:1045F000002B08D07B68062283F8582003E07B68F4
:10460000082283F858201837BD4680BD1FBF02001E
:1046100090B589B000AFF8607A601A460B467B818E
:1046200013463B8100237B750023FB770023BB7778
:1046300000237B7701233B7700237B8300233B838D
:104640000023FB827B89B3F5837F08D1FB6893F855
:104650005830012B03D0FB68082283F85820FB68F0
:1046600093F85830013B0A2B00F2E68101A252F880
:1046700023F000BFA1460208C74602080747020808
:1046800055490208CF490208B5490208394A0208CB
:10469000E949020841490208B14702088148020875
:1046A0007B89002B01D0012300E002233B7500230E
:1046B0003B77FB685C6F3B7D9BB2F8681946002234
:1046C0000023A047C6E17B89B3F5817F04D1FB6855
:1046D000052283F85820BDE1FEF796FE0246FB68EE
:1046E0001A67FB68032283F85820F86800F030FA54
:1046F0000346002B04D0FB68062283F85820A9E16A
:1047000000233B77A6E17B89B3F5817F04D1FB6869
:10471000052283F858209DE13B89042B04D8FB68CF
:10472000062283F8582095E17B681B787B757B7D9A
:10473000DB09FB747B7D03F060035B117B777B7D82
:1047400003F00303BB777B7D03F00C039B10FB7727
:104750007B6801331B781B029AB27B6802331B789B
:104760009BB213439BB27B833B89023B7A68134421
:104770001B781B0299B23B89013B7A6813441B7872
:104780009BB20A4613439BB23B833B89023B9BB2DD
:1047900078681946FFF700FE0346FB82FB7C012B7D
:1047A00001D10B2200E00A22FB6883F8582051E176
:1047B0003A8BFB8A9A420DD17B8B002B0AD03A8927
:1047C0007B8B05339A4205D17B7F032B02D07B7F05
:1047D000022B04D1FB68062283F858203AE1FA7FC5
:1047E000FB6893F85A30013303F003039A420CD06C
:1047F000FB68092283F8582000233B77F8680021E2
:1048000000220023FFF7EAFD24E1FB6893F859300A
:10481000BA7F9A4204D0FB68092283F8582019E134
:104820007B7F012B04D1FB68052283F8582011E11E
:10483000FB6893F85A300133DBB203F00303DAB2BA
:10484000FB6883F85A20FB68DA6E3B89104679686A
:104850001A463BF051FEFB683A89A3F86620FB68D4
:10486000002283F85C20FB68042283F85820002390
:104870003B77F868002100220023FFF7AFFDE9E055
:10488000FB6893F85B301A467B7F022B0CBF012339
:104890000023DBB29A4204D0FB68092283F8582037
:1048A000D8E03A8BFB8A9A4204D0FB68052283F851
:1048B0005820CFE03B89052B02D87B8B002B04D0FE
:1048C000FB68092283F85820C4E07B7F022B10D1BB
:1048D000FB68092283F85820FB68012283F85E20D8
:1048E000FB68032283F85920FB68032283F85A20CF
:1048F000B0E0FB7F002B08D17B7F032B05D0FB684A
:1049000093F85930BA7F9A4204D0FB68092283F8A1
:1049100058209FE07B7F012B04D1FB68052283F8A0
:10492000582097E0FB68012283F8582000233B774A
:10493000FB685C6FF868022100220023A04789E031
:10494000FB68032283F8582000233B77F86800F0C7
:10495000FFF87FE07B89B3F5817F04D1FB680522F6
:1049600083F8582076E0FB68012283F85820002362
:104970003B77FB6893F85B30002B0DD0FB685C6FD6
:10498000FB68DB6EDA1CFB68B3F86630053B9BB254
:10499000F8680421A0475DE0FB685C6FFB68DB6E94
:1049A000DA1CFB68B3F86630053B9BB2F868062159
:1049B000A0474FE0FB68022283F8582000233B7792
:1049C000F868002101220023FFF708FD42E0F868A3
:1049D0000021FFF7C9FDFB6893F85830082B02D07F
:1049E00000233B7736E035E0FB6893F85E30002B20
:1049F00003D1FB68012283F85D20FB6893F85D30EA
:104A0000002B0BD1FB68012283F85820FB685C6FF8
:104A1000F868012100220023A0470AE0F868FFF7A8
:104A20007FFDFB68082283F85820FB68002283F88A
:104A30005D2000233B770DE0FB68012283F85820BE
:104A4000FB685C6FF868012100220023A047002367
:104A50003B7700BF3B7F012B3FF4F4AD2437BD46CD
:104A600090BD00BF80B582B000AF786039607B68D0
:104A70003A68C3F8A0217B68002283F897217B68FD
:104A8000BB2283F8A4217B681B697A6812781A71AB
:104A90007B681B69184ADA607B68C822A3F89421F6
:104AA0007B6893F82B30012B0AD17B681B69184671
:104AB000FEF7F4F90346002B02D04FF4817316E0A1
:104AC0007B6893F8A531012B08D17B68992283F884
:104AD000A5217B68052283F8972103E07B680122EA
:104AE00083F897217868002100F064FA00231846C3
:104AF0000837BD4680BD00BF9152020880B584B022
:104B000000AFF860B9601346FB80FB6893F89731FB
:104B1000012B07D0FB6893F89731022B02D04FF49A
:104B2000817310E0FB68012283F89621FB68BA6864
:104B3000C3F89821FB68FA88A3F89C21F868002143
:104B400000F038FA002318461037BD4680BD00BF7C
:104B500080B582B000AF78607B6893F89731012B05
:104B600007D07B6893F89731022B02D04FF4817302
:104B700008E07B68022283F896217868002100F023
:104B800019FA002318460837BD4680BD80B582B0AB
:104B900000AF78600B46FB7013463B807B68FA7869
:104BA00083F878207B680122A3F88E217B683A88FD
:104BB000A3F890217B68012283F892217B68C822A8
:104BC000A3F894217B68012283F893217B681969FB
:104BD0007B6803F178027B68B3F88E310846114692
:104BE0001A46FEF7BFF90837BD4680BD80B584B0D0
:104BF00000AFF8607B600B46FB7213463B81FB689D
:104C0000FA7A83F87820FB6803F179023B89104631
:104C100079681A463BF070FC3B8901339AB2FB6815
:104C2000A3F88E21FB68022283F89221FB68C82238
:104C3000A3F89421FB68012283F89321FB6819698A
:104C4000FB6803F17802FB68B3F88E310846114621
:104C50001A46FEF787F91037BD4680BD80B582B091
:104C600000AF7860786882210422FFF78FFF083751
:104C7000BD4680BD80B584B000AF78600B467B80B8
:104C80007B681B69DB68BB607B681B690022DA609C
:104C90007B681A697B8810461946FEF7F1F90346CE
:104CA000FB817B681B69BA68DA60FB89002B1AD02C
:104CB0007B68B3F894315A1E91B27A68A2F89411C5
:104CC000002B0CD07B68D3F8D433184609497A6896
:104CD0004FF47A73FEF706FB0123FB8105E04FF4E6
:104CE0008173FB8101E00023FB81FB8918461037AB
:104CF000BD4680BDF94C020890B58BB000AF78601E
:104D00000223FB847B68BB61BB699B881B0A9BB247
:104D1000DBB23B73BB699B88DBB27B7300237B8474
:104D20000023FB61002387F82530BB6993F8A43189
:104D3000552B00F09A80552B0DDC222B00F0EE80D5
:104D4000222B03DC112B00F0DD8029E1332B3DD039
:104D5000442B45D024E1882B00F0EA80882B06DC28
:104D6000662B00F08C80772B00F0AB8018E1AA2B2B
:104D700000F00081BB2B00D012E178686421FFF7BE
:104D800079FF0346FB84FB8C002B07D1BB693322E0
:104D900083F8A421012387F8253016E0FB8CB3F5B6
:104DA000817F12D1BB69AA2283F8A4210023FB6171
:104DB00000237B84BB69D3F8D43318467C49BA6995
:104DC00042F6E063FEF78EFAEAE0E9E0BB694422CE
:104DD00083F8A421B86984210422FFF7D7FEDFE01D
:104DE000BB6993F87A301B029AB2BB6993F87B30A7
:104DF0009BB213439BB2FB8280233B74BB695B88ED
:104E0000B3F5C87F11D9FB8AB3F5C87F0DD8042349
:104E10007B74BB69552283F8A42107F11003B8699C
:104E200089210222FFF7E2FE1EE0BB695B88B3F531
:104E3000C87F11D8FB8AB3F5C87F0DD903237B74D3
:104E4000BB69552283F8A42107F11003B8698921B1
:104E50000222FFF7CBFE07E0BB69662283F8A4219C
:104E6000012387F825309BE09AE0BB69662283F82E
:104E7000A421B86984210422FFF788FE90E0BB6971
:104E800093F87A301B029AB2BB6993F87B309BB2DD
:104E900013439BB2FB82BB695B88FA8A9A4208D2B1
:104EA0000023FB6100237B84BB69AA2283F8A42131
:104EB00003E0BB69772283F8A421012387F825301A
:104EC0006EE0BB695B8878681946FFF7D3FE03463E
:104ED000FB84FB8C002B07D1BB69112283F8A42132
:104EE000012387F825300CE0FB8CB3F5817F08D1D6
:104EF000BB69AA2283F8A4210023FB6100237B84E1
:104F00004EE04DE0BB69222283F8A42107F10C0397
:104F1000B86981210222FFF769FE41E0BB6988225E
:104F200083F8A421B86981210222FFF72FFE37E020
:104F3000BB69AA2283F8A421BB6993F878301B02CD
:104F40009AB2BB6993F879309BB213439BB2BB8290
:104F5000BB699B88BA8A9A4204D8BB69BA8A9A808C
:104F60000023FB840023FB6100237B84012387F85B
:104F7000253015E0FB8C002B04D1BB69022283F89D
:104F8000972103E0BB69002283F89721BB69D3F81E
:104F9000A041FA8C7B8CB8691146FA69A04700BF22
:104FA00097F82530002B7FF4BDAE2C37BD4690BD61
:104FB000F94C020890B587B000AF78600B467B8053
:104FC0007B88002B0DD07B68022283F897217B68B9
:104FD000D3F8A0417B887868194600220023A047B7
:104FE000EBE07B6893F89731013B042B00F2D7800C
:104FF00001A252F823F000BF155002081D5002080C
:105000003B5002087D5102080D500208786800F0FC
:105010007BF9D2E07868FFF76FFECEE07B68032271
:1050200083F897217B6893F89631022B05D1786835
:1050300082210422FFF7AAFDBFE07B6893F8963136
:10504000022B56D17B6893F8783003F04003002B95
:105050004FD07B6893F87A301B029AB27B6893F842
:105060007B309BB213439BB27B827B8A002B0FD099
:105070007B689B887A8A9A420AD87B68042283F8E4
:1050800097217B8A786880211A46FFF77FFD2FE001
:10509000FEF7BAF9F8607B681B6FFA68D31A7B6178
:1050A0007B681A6FFB689A4204D97B681B6FFA68A9
:1050B000D31A7B617B681A6E7B699A420AD97B6836
:1050C000D3F8D43318463E497A6841F28833FEF764
:1050D00009F90DE07B68022283F897217B68D3F8F9
:1050E000A04178684FF4817100220023A04744E07A
:1050F00043E07B6893F89631012B0ED17B68042244
:1051000083F897217B68B3F89C217B68D3F89831AA
:1051100078688021FFF76AFD2FE0FEF775F9F860E7
:105120007B681B6FFA68D31A7B617B681A6FFB6818
:105130009A4204D97B681B6FFA68D31A7B617B683B
:105140001A6E7B699A420AD97B68D3F8D433184621
:105150001B497A6841F28833FEF7C4F80DE07B689A
:10516000022283F897217B68D3F8A04178684FF436
:10517000817100220023A0471FE01EE07B6802220D
:1051800083F897217B68D3F8A0417B6803F178020C
:105190007B68B3F8903178680021A0470DE07B6808
:1051A000012283F897217B68D3F8A04178684FF4F7
:1051B000817100220023A04700BF1C37BD4690BD6F
:1051C0005D4C020880B584B000AF78607B68FB60FE
:1051D000FB6893F89331012B0DD1FB681969FB68CB
:1051E00003F17802FB68B3F88E31084611461A467F
:1051F000FDF7B8FE11E0FB6893F89331022B0CD158
:10520000FB681969FB6803F17802FB68B3F8903119
:10521000084611461A46FDF7EBFE1037BD4680BD25
:1052200080B584B000AF78607B68FB60FB6893F862
:105230009231012B20D1FB6893F89331012B11D1CE
:10524000FB68022283F89321FB681969FB6803F16C
:105250007802FB68B3F89031084611461A46FDF70C
:10526000C7FE12E0FB6893F89331022B0DD1F8686A
:105270000021FFF79FFE08E0FB6893F89231022BB4
:1052800003D1F8680021FFF795FE1037BD4680BDB9
:1052900080B584B000AF78600B467B807B68FB6094
:1052A0007B88002B1ED0002B26DB022B24DCFB6826
:1052B000B3F894315A1E91B2FA68A2F89411002BF7
:1052C0000AD0FB68D3F8D43318460D49FA684FF476
:1052D0007A73FEF707F810E0F8684FF48371FFF770
:1052E00069FE0AE0FB68D3F8D43318460549FA682A
:1052F0003223FDF7F7FF00E000BF1037BD4680BD49
:10530000C55102082152020880B584B000AF786010
:105310000023BB817B6893F8A531993B0A2B5FD8AA
:1053200001A252F823F000BF55530208E1530208CE
:10533000E1530208E1530208E1530208E153020875
:10534000E1530208E1530208CF53020869530208EF
:10535000B15302087B68A22283F8A52178688221D4
:105360000422FFF713FC3CE07B6893F8783003F0ED
:105370000803DAB27B6883F878207B6893F878308A
:10538000082B0BD17B68A32283F8A52107F10C031E
:10539000786888210222FFF729FC22E07B6800223E
:1053A00083F8972178684FF48171FFF703FE18E0C6
:1053B0007B68A12283F8A5217B68D3F8D4331846F3
:1053C00009497A6842F6E063FDF78CFF09E07B68E3
:1053D000012283F8972178680021FFF7EBFD00E0B8
:1053E00000BF1037BD4680BD0953020880B582B0AA
:1053F00000AF786039607B68002283F82C207868E1
:105400000F49FEF7FBFE0346002B02D04FF48173D9
:1054100011E07B68012283F850207B683A685A6566
:105420007B68012283F82C207B689B88063B9AB21C
:105430007B685A87002318460837BD4680BD00BFE9
:10544000E556020880B586B000AFF860B9603B60F1
:105450001346FB804FF48173FB82BB68002B39D06D
:10546000FB88002B36D0FB6893F82C30012B00D042
:1054700030E0FB68022283F82C20FDF7C5FF0246CE
:10548000FB685A64FB68BA681A63FB68FA88DA86B4
:10549000FB6800221A87FB683A68DA63FB683A6A9D
:1054A0001A64FB6800229A86FB68002283F8482071
:1054B000FB68002283F84920FB68002283F84B2018
:1054C000FB684FF48172A3F84C20F86800F05EF896
:1054D0000346FB82FB8A18461837BD4680BD00BFD5
:1054E00080B582B000AF78607B6893F82C30012BD8
:1054F00002D04FF481730DE07B6800221A877B682D
:1055000000229A867B68022283F82C20786800F0BB
:105510003DF8034618460837BD4680BD80B485B0C7
:1055200000AF78607B685B8FBB817B68DA8E7B68BD
:105530001B8FD31A7B817B681B8F002B06D17A8946
:10554000BB899A4202D80023FB7317E07B681B8F4C
:10555000002B06D17A89BB899A4202D90123FB73B9
:105560000CE07B681B8F002B06D07A89BB899A429E
:1055700002D90223FB7301E00423FB73FB7B184673
:105580001437BD465DF8047B704700BF80B584B01A
:1055900000AF786000237B737B685B8FFB8178684A
:1055A000FFF7BCFF03467B737B68DB8E1A467B6884
:1055B0001B8FD21AFB899A4205DA7B68DA8E7B68E8
:1055C0001B8FD31AFB817B687A7B83F8AB217B68C6
:1055D00003F5D6717B681B6B7A68128F1A44FB89BE
:1055E000084611461A463AF087FF7B681A8FFB89F6
:1055F00013449AB27B681A87FB8901339BB278689F
:105600001946FEF737FE034618461037BD4680BDE3
:1056100080B584B000AF78600123FB817B680722EE
:1056200083F8AB217B6800229A86FB89786819464B
:10563000FEF720FE034618461037BD4680BD00BF6A
:1056400080B485B000AF03460A46FB711346BB71B8
:105650004FF48173FB81FB79072B0BD0FB79002B77
:1056600008D0FB79042B05D0FB79022B02D0FB7903
:10567000012B10D1FB790B4A12F81330BA799A42F8
:1056800007D0FB79074A5B0013445B78BA799A42EA
:1056900001D10023FB81FB8918461437BD465DF814
:1056A000047B704704A5FE1F80B485B000AF78600E
:1056B0000B46FB700023FB81FB7823F007037B7311
:1056C0007B6893F85030002B05D17B7B002B02D0F8
:1056D0004FF48173FB81FB8918461437BD465DF892
:1056E000047B704790B587B000AFF8607A601A46C7
:1056F0000B467B8113463B810023FB750023BB7562
:1057000001237B757B68002B06D07B681B78FB75BB
:10571000FB7D03F00703BB757B8903F00103002BBE
:1057200008D0FB68062283F82C20FB684FF48172B6
:10573000A3F84C203B89002B10D0FB7DF86819465C
:10574000FFF7B2FF0346002B08D0FB68062283F860
:105750002C20FB684FF48172A3F84C20FB680022D8
:1057600083F85020FB6893F82C30013B072B00F2A4
:10577000BF8101A252F823F099570208AD570208E1
:10578000F15A02083D58020873590208BF5A02082C
:105790007D5A0208215A020800237B75FB685C6D64
:1057A000F868002100220023A047B2E17B8903F0C2
:1057B0000203002B3CD0FB681A8FFB68DB8E9A42F9
:1057C00015D2BB7D072B04D1FB68082283F82C205F
:1057D0009FE13B89002B04D0FB68062283F82C2034
:1057E00097E100237B75F868FFF7D0FE25E0FB68A2
:1057F000042283F82C20FB6800229A86FB68002292
:1058000083F84A20FB68012283F84B207B8903F050
:105810000403002B11D1F868FEF75CFD0346002B52
:1058200003D0FB68062283F82C2000237B7570E1EF
:10583000FB68062283F82C206BE16AE17B8903F088
